{
  "_format": "hh-sol-artifact-1",
  "contractName": "Girl42",
  "sourceName": "code/contracts/Girl42.sol",
  "abi": [
    {
      "inputs": [
        {
          "internalType": "string",
          "name": "name",
          "type": "string"
        },
        {
          "internalType": "string",
          "name": "symbol",
          "type": "string"
        },
        {
          "internalType": "address",
          "name": "initialOwner",
          "type": "address"
        }
      ],
      "stateMutability": "nonpayable",
      "type": "constructor"
    },
    {
      "inputs": [
        {
          "internalType": "address",
          "name": "sender",
          "type": "address"
        },
        {
          "internalType": "uint256",
          "name": "tokenId",
          "type": "uint256"
        },
        {
          "internalType": "address",
          "name": "owner",
          "type": "address"
        }
      ],
      "name": "ERC721IncorrectOwner",
      "type": "error"
    },
    {
      "inputs": [
        {
          "internalType": "address",
          "name": "operator",
          "type": "address"
        },
        {
          "internalType": "uint256",
          "name": "tokenId",
          "type": "uint256"
        }
      ],
      "name": "ERC721InsufficientApproval",
      "type": "error"
    },
    {
      "inputs": [
        {
          "internalType": "address",
          "name": "approver",
          "type": "address"
        }
      ],
      "name": "ERC721InvalidApprover",
      "type": "error"
    },
    {
      "inputs": [
        {
          "internalType": "address",
          "name": "operator",
          "type": "address"
        }
      ],
      "name": "ERC721InvalidOperator",
      "type": "error"
    },
    {
      "inputs": [
        {
          "internalType": "address",
          "name": "owner",
          "type": "address"
        }
      ],
      "name": "ERC721InvalidOwner",
      "type": "error"
    },
    {
      "inputs": [
        {
          "internalType": "address",
          "name": "receiver",
          "type": "address"
        }
      ],
      "name": "ERC721InvalidReceiver",
      "type": "error"
    },
    {
      "inputs": [
        {
          "internalType": "address",
          "name": "sender",
          "type": "address"
        }
      ],
      "name": "ERC721InvalidSender",
      "type": "error"
    },
    {
      "inputs": [
        {
          "internalType": "uint256",
          "name": "tokenId",
          "type": "uint256"
        }
      ],
      "name": "ERC721NonexistentToken",
      "type": "error"
    },
    {
      "inputs": [
        {
          "internalType": "address",
          "name": "owner",
          "type": "address"
        }
      ],
      "name": "OwnableInvalidOwner",
      "type": "error"
    },
    {
      "inputs": [
        {
          "internalType": "address",
          "name": "account",
          "type": "address"
        }
      ],
      "name": "OwnableUnauthorizedAccount",
      "type": "error"
    },
    {
      "anonymous": false,
      "inputs": [
        {
          "indexed": true,
          "internalType": "address",
          "name": "owner",
          "type": "address"
        },
        {
          "indexed": true,
          "internalType": "address",
          "name": "approved",
          "type": "address"
        },
        {
          "indexed": true,
          "internalType": "uint256",
          "name": "tokenId",
          "type": "uint256"
        }
      ],
      "name": "Approval",
      "type": "event"
    },
    {
      "anonymous": false,
      "inputs": [
        {
          "indexed": true,
          "internalType": "address",
          "name": "owner",
          "type": "address"
        },
        {
          "indexed": true,
          "internalType": "address",
          "name": "operator",
          "type": "address"
        },
        {
          "indexed": false,
          "internalType": "bool",
          "name": "approved",
          "type": "bool"
        }
      ],
      "name": "ApprovalForAll",
      "type": "event"
    },
    {
      "anonymous": false,
      "inputs": [
        {
          "indexed": true,
          "internalType": "address",
          "name": "previousOwner",
          "type": "address"
        },
        {
          "indexed": true,
          "internalType": "address",
          "name": "newOwner",
          "type": "address"
        }
      ],
      "name": "OwnershipTransferred",
      "type": "event"
    },
    {
      "anonymous": false,
      "inputs": [
        {
          "indexed": true,
          "internalType": "address",
          "name": "from",
          "type": "address"
        },
        {
          "indexed": true,
          "internalType": "address",
          "name": "to",
          "type": "address"
        },
        {
          "indexed": true,
          "internalType": "uint256",
          "name": "tokenId",
          "type": "uint256"
        }
      ],
      "name": "Transfer",
      "type": "event"
    },
    {
      "inputs": [
        {
          "internalType": "address",
          "name": "to",
          "type": "address"
        },
        {
          "internalType": "uint256",
          "name": "tokenId",
          "type": "uint256"
        }
      ],
      "name": "approve",
      "outputs": [],
      "stateMutability": "nonpayable",
      "type": "function"
    },
    {
      "inputs": [
        {
          "internalType": "address",
          "name": "owner",
          "type": "address"
        }
      ],
      "name": "balanceOf",
      "outputs": [
        {
          "internalType": "uint256",
          "name": "",
          "type": "uint256"
        }
      ],
      "stateMutability": "view",
      "type": "function"
    },
    {
      "inputs": [],
      "name": "exists",
      "outputs": [
        {
          "internalType": "bool",
          "name": "",
          "type": "bool"
        }
      ],
      "stateMutability": "view",
      "type": "function"
    },
    {
      "inputs": [
        {
          "internalType": "uint256",
          "name": "tokenId",
          "type": "uint256"
        }
      ],
      "name": "getApproved",
      "outputs": [
        {
          "internalType": "address",
          "name": "",
          "type": "address"
        }
      ],
      "stateMutability": "view",
      "type": "function"
    },
    {
      "inputs": [],
      "name": "getOnChainMetadata",
      "outputs": [
        {
          "internalType": "string",
          "name": "",
          "type": "string"
        }
      ],
      "stateMutability": "view",
      "type": "function"
    },
    {
      "inputs": [
        {
          "internalType": "address",
          "name": "owner",
          "type": "address"
        },
        {
          "internalType": "address",
          "name": "operator",
          "type": "address"
        }
      ],
      "name": "isApprovedForAll",
      "outputs": [
        {
          "internalType": "bool",
          "name": "",
          "type": "bool"
        }
      ],
      "stateMutability": "view",
      "type": "function"
    },
    {
      "inputs": [
        {
          "internalType": "address",
          "name": "recipient",
          "type": "address"
        },
        {
          "internalType": "string",
          "name": "onChainMetadata",
          "type": "string"
        }
      ],
      "name": "mintNFT",
      "outputs": [],
      "stateMutability": "nonpayable",
      "type": "function"
    },
    {
      "inputs": [],
      "name": "name",
      "outputs": [
        {
          "internalType": "string",
          "name": "",
          "type": "string"
        }
      ],
      "stateMutability": "view",
      "type": "function"
    },
    {
      "inputs": [],
      "name": "owner",
      "outputs": [
        {
          "internalType": "address",
          "name": "",
          "type": "address"
        }
      ],
      "stateMutability": "view",
      "type": "function"
    },
    {
      "inputs": [
        {
          "internalType": "uint256",
          "name": "tokenId",
          "type": "uint256"
        }
      ],
      "name": "ownerOf",
      "outputs": [
        {
          "internalType": "address",
          "name": "",
          "type": "address"
        }
      ],
      "stateMutability": "view",
      "type": "function"
    },
    {
      "inputs": [],
      "name": "renounceOwnership",
      "outputs": [],
      "stateMutability": "nonpayable",
      "type": "function"
    },
    {
      "inputs": [
        {
          "internalType": "address",
          "name": "from",
          "type": "address"
        },
        {
          "internalType": "address",
          "name": "to",
          "type": "address"
        },
        {
          "internalType": "uint256",
          "name": "tokenId",
          "type": "uint256"
        }
      ],
      "name": "safeTransferFrom",
      "outputs": [],
      "stateMutability": "nonpayable",
      "type": "function"
    },
    {
      "inputs": [
        {
          "internalType": "address",
          "name": "from",
          "type": "address"
        },
        {
          "internalType": "address",
          "name": "to",
          "type": "address"
        },
        {
          "internalType": "uint256",
          "name": "tokenId",
          "type": "uint256"
        },
        {
          "internalType": "bytes",
          "name": "data",
          "type": "bytes"
        }
      ],
      "name": "safeTransferFrom",
      "outputs": [],
      "stateMutability": "nonpayable",
      "type": "function"
    },
    {
      "inputs": [
        {
          "internalType": "address",
          "name": "operator",
          "type": "address"
        },
        {
          "internalType": "bool",
          "name": "approved",
          "type": "bool"
        }
      ],
      "name": "setApprovalForAll",
      "outputs": [],
      "stateMutability": "nonpayable",
      "type": "function"
    },
    {
      "inputs": [
        {
          "internalType": "bytes4",
          "name": "interfaceId",
          "type": "bytes4"
        }
      ],
      "name": "supportsInterface",
      "outputs": [
        {
          "internalType": "bool",
          "name": "",
          "type": "bool"
        }
      ],
      "stateMutability": "view",
      "type": "function"
    },
    {
      "inputs": [],
      "name": "symbol",
      "outputs": [
        {
          "internalType": "string",
          "name": "",
          "type": "string"
        }
      ],
      "stateMutability": "view",
      "type": "function"
    },
    {
      "inputs": [
        {
          "internalType": "uint256",
          "name": "tokenId",
          "type": "uint256"
        }
      ],
      "name": "tokenURI",
      "outputs": [
        {
          "internalType": "string",
          "name": "",
          "type": "string"
        }
      ],
      "stateMutability": "view",
      "type": "function"
    },
    {
      "inputs": [
        {
          "internalType": "address",
          "name": "from",
          "type": "address"
        },
        {
          "internalType": "address",
          "name": "to",
          "type": "address"
        },
        {
          "internalType": "uint256",
          "name": "tokenId",
          "type": "uint256"
        }
      ],
      "name": "transferFrom",
      "outputs": [],
      "stateMutability": "nonpayable",
      "type": "function"
    },
    {
      "inputs": [
        {
          "internalType": "address",
          "name": "newOwner",
          "type": "address"
        }
      ],
      "name": "transferOwnership",
      "outputs": [],
      "stateMutability": "nonpayable",
      "type": "function"
    },
    {
      "inputs": [
        {
          "internalType": "string",
          "name": "newMetadata",
          "type": "string"
        }
      ],
      "name": "updateOnChainMetadata",
      "outputs": [],
      "stateMutability": "nonpayable",
      "type": "function"
    }
  ],
  "bytecode": "0x608060405234801561001057600080fd5b5060405161300e38038061300e833981810160405281019061003291906104e6565b80838381600090816100449190610792565b5080600190816100549190610792565b505050600073ffffffffffffffffffffffffffffffffffffffff168173ffffffffffffffffffffffffffffffffffffffff16036100c95760006040517f1e4fbdf70000000000000000000000000000000000000000000000000000000081526004016100c09190610873565b60405180910390fd5b6100d8816100f060201b60201c565b506100e8816101b660201b60201c565b50505061088e565b6000600660009054906101000a900473ffffffffffffffffffffffffffffffffffffffff16905081600660006101000a81548173ffffffffffffffffffffffffffffffffffffffff021916908373ffffffffffffffffffffffffffffffffffffffff1602179055508173ffffffffffffffffffffffffffffffffffffffff168173ffffffffffffffffffffffffffffffffffffffff167f8be0079c531659141344cd1fd0a4f28419497f9722a3daafe3b4186f6b6457e060405160405180910390a35050565b6101c461024860201b60201c565b600073ffffffffffffffffffffffffffffffffffffffff168173ffffffffffffffffffffffffffffffffffffffff16036102365760006040517f1e4fbdf700000000000000000000000000000000000000000000000000000000815260040161022d9190610873565b60405180910390fd5b610245816100f060201b60201c565b50565b6102566102e160201b60201c565b73ffffffffffffffffffffffffffffffffffffffff1661027a6102e960201b60201c565b73ffffffffffffffffffffffffffffffffffffffff16146102df576102a36102e160201b60201c565b6040517f118cdaa70000000000000000000000000000000000000000000000000000000081526004016102d69190610873565b60405180910390fd5b565b600033905090565b6000600660009054906101000a900473ffffffffffffffffffffffffffffffffffffffff16905090565b6000604051905090565b600080fd5b600080fd5b600080fd5b600080fd5b6000601f19601f8301169050919050565b7f4e487b7100000000000000000000000000000000000000000000000000000000600052604160045260246000fd5b61037a82610331565b810181811067ffffffffffffffff8211171561039957610398610342565b5b80604052505050565b60006103ac610313565b90506103b88282610371565b919050565b600067ffffffffffffffff8211156103d8576103d7610342565b5b6103e182610331565b9050602081019050919050565b60005b8381101561040c5780820151818401526020810190506103f1565b60008484015250505050565b600061042b610426846103bd565b6103a2565b9050828152602081018484840111156104475761044661032c565b5b6104528482856103ee565b509392505050565b600082601f83011261046f5761046e610327565b5b815161047f848260208601610418565b91505092915050565b600073ffffffffffffffffffffffffffffffffffffffff82169050919050565b60006104b382610488565b9050919050565b6104c3816104a8565b81146104ce57600080fd5b50565b6000815190506104e0816104ba565b92915050565b6000806000606084860312156104ff576104fe61031d565b5b600084015167ffffffffffffffff81111561051d5761051c610322565b5b6105298682870161045a565b935050602084015167ffffffffffffffff81111561054a57610549610322565b5b6105568682870161045a565b9250506040610567868287016104d1565b9150509250925092565b600081519050919050565b7f4e487b7100000000000000000000000000000000000000000000000000000000600052602260045260246000fd5b600060028204905060018216806105c357607f821691505b6020821081036105d6576105d561057c565b5b50919050565b60008190508160005260206000209050919050565b60006020601f8301049050919050565b600082821b905092915050565b60006008830261063e7fffffffffffffffffffffffffffffffffffffffffffffffffffffffffffffffff82610601565b6106488683610601565b95508019841693508086168417925050509392505050565b6000819050919050565b6000819050919050565b600061068f61068a61068584610660565b61066a565b610660565b9050919050565b6000819050919050565b6106a983610674565b6106bd6106b582610696565b84845461060e565b825550505050565b600090565b6106d26106c5565b6106dd8184846106a0565b505050565b5b81811015610701576106f66000826106ca565b6001810190506106e3565b5050565b601f82111561074657610717816105dc565b610720846105f1565b8101602085101561072f578190505b61074361073b856105f1565b8301826106e2565b50505b505050565b600082821c905092915050565b60006107696000198460080261074b565b1980831691505092915050565b60006107828383610758565b9150826002028217905092915050565b61079b82610571565b67ffffffffffffffff8111156107b4576107b3610342565b5b6107be82546105ab565b6107c9828285610705565b600060209050601f8311600181146107fc57600084156107ea578287015190505b6107f48582610776565b86555061085c565b601f19841661080a866105dc565b60005b828110156108325784890151825560018201915060208501945060208101905061080d565b8683101561084f578489015161084b601f891682610758565b8355505b6001600288020188555050505b505050505050565b61086d816104a8565b82525050565b60006020820190506108886000830184610864565b92915050565b6127718061089d6000396000f3fe608060405234801561001057600080fd5b506004361061012c5760003560e01c80638da5cb5b116100ad578063c87b56dd11610071578063c87b56dd1461031b578063e985e9c51461034b578063eacabe141461037b578063f2fde38b14610397578063ff410db3146103b35761012c565b80638da5cb5b1461028b57806395d89b41146102a9578063a22cb465146102c7578063a83e3672146102e3578063b88d4fde146102ff5761012c565b8063267c4ae4116100f4578063267c4ae4146101e757806342842e0e146102055780636352211e1461022157806370a0823114610251578063715018a6146102815761012c565b806301ffc9a71461013157806306fdde0314610161578063081812fc1461017f578063095ea7b3146101af57806323b872dd146101cb575b600080fd5b61014b60048036038101906101469190611a1e565b6103d1565b6040516101589190611a66565b60405180910390f35b6101696104b3565b6040516101769190611b11565b60405180910390f35b61019960048036038101906101949190611b69565b610545565b6040516101a69190611bd7565b60405180910390f35b6101c960048036038101906101c49190611c1e565b610561565b005b6101e560048036038101906101e09190611c5e565b610577565b005b6101ef610679565b6040516101fc9190611a66565b60405180910390f35b61021f600480360381019061021a9190611c5e565b610690565b005b61023b60048036038101906102369190611b69565b6106b0565b6040516102489190611bd7565b60405180910390f35b61026b60048036038101906102669190611cb1565b6106c2565b6040516102789190611ced565b60405180910390f35b61028961077c565b005b610293610790565b6040516102a09190611bd7565b60405180910390f35b6102b16107ba565b6040516102be9190611b11565b60405180910390f35b6102e160048036038101906102dc9190611d34565b61084c565b005b6102fd60048036038101906102f89190611ea9565b610862565b005b61031960048036038101906103149190611f93565b6108f5565b005b61033560048036038101906103309190611b69565b61091a565b6040516103429190611b11565b60405180910390f35b61036560048036038101906103609190612016565b610a68565b6040516103729190611a66565b60405180910390f35b61039560048036038101906103909190612056565b610afc565b005b6103b160048036038101906103ac9190611cb1565b610bd2565b005b6103bb610c58565b6040516103c89190611b11565b60405180910390f35b60007f80ac58cd000000000000000000000000000000000000000000000000000000007bffffffffffffffffffffffffffffffffffffffffffffffffffffffff1916827bffffffffffffffffffffffffffffffffffffffffffffffffffffffff1916148061049c57507f5b5e139f000000000000000000000000000000000000000000000000000000007bffffffffffffffffffffffffffffffffffffffffffffffffffffffff1916827bffffffffffffffffffffffffffffffffffffffffffffffffffffffff1916145b806104ac57506104ab82610d62565b5b9050919050565b6060600080546104c2906120e1565b80601f01602080910402602001604051908101604052809291908181526020018280546104ee906120e1565b801561053b5780601f106105105761010080835404028352916020019161053b565b820191906000526020600020905b81548152906001019060200180831161051e57829003601f168201915b5050505050905090565b600061055082610dcc565b5061055a82610e54565b9050919050565b610573828261056e610e91565b610e99565b5050565b600073ffffffffffffffffffffffffffffffffffffffff168273ffffffffffffffffffffffffffffffffffffffff16036105e95760006040517f64a0ae920000000000000000000000000000000000000000000000000000000081526004016105e09190611bd7565b60405180910390fd5b60006105fd83836105f8610e91565b610eab565b90508373ffffffffffffffffffffffffffffffffffffffff168173ffffffffffffffffffffffffffffffffffffffff1614610673578382826040517f64283d7b00000000000000000000000000000000000000000000000000000000815260040161066a93929190612112565b60405180910390fd5b50505050565b6000600860009054906101000a900460ff16905090565b6106ab838383604051806020016040528060008152506108f5565b505050565b60006106bb82610dcc565b9050919050565b60008073ffffffffffffffffffffffffffffffffffffffff168273ffffffffffffffffffffffffffffffffffffffff16036107355760006040517f89c62b6400000000000000000000000000000000000000000000000000000000815260040161072c9190611bd7565b60405180910390fd5b600360008373ffffffffffffffffffffffffffffffffffffffff1673ffffffffffffffffffffffffffffffffffffffff168152602001908152602001600020549050919050565b6107846110c5565b61078e600061114c565b565b6000600660009054906101000a900473ffffffffffffffffffffffffffffffffffffffff16905090565b6060600180546107c9906120e1565b80601f01602080910402602001604051908101604052809291908181526020018280546107f5906120e1565b80156108425780601f1061081757610100808354040283529160200191610842565b820191906000526020600020905b81548152906001019060200180831161082557829003601f168201915b5050505050905090565b61085e610857610e91565b8383611212565b5050565b61086a6110c5565b600073ffffffffffffffffffffffffffffffffffffffff1661088c6001611381565b73ffffffffffffffffffffffffffffffffffffffff16036108e2576040517f08c379a00000000000000000000000000000000000000000000000000000000081526004016108d990612195565b60405180910390fd5b80600790816108f19190612361565b5050565b610900848484610577565b61091461090b610e91565b858585856113be565b50505050565b60606001821461095f576040517f08c379a00000000000000000000000000000000000000000000000000000000081526004016109569061247f565b60405180910390fd5b600073ffffffffffffffffffffffffffffffffffffffff1661098083611381565b73ffffffffffffffffffffffffffffffffffffffff16036109d6576040517f08c379a00000000000000000000000000000000000000000000000000000000081526004016109cd90612511565b60405180910390fd5b600780546109e3906120e1565b80601f0160208091040260200160405190810160405280929190818152602001828054610a0f906120e1565b8015610a5c5780601f10610a3157610100808354040283529160200191610a5c565b820191906000526020600020905b815481529060010190602001808311610a3f57829003601f168201915b50505050509050919050565b6000600560008473ffffffffffffffffffffffffffffffffffffffff1673ffffffffffffffffffffffffffffffffffffffff16815260200190815260200160002060008373ffffffffffffffffffffffffffffffffffffffff1673ffffffffffffffffffffffffffffffffffffffff16815260200190815260200160002060009054906101000a900460ff16905092915050565b610b046110c5565b600860009054906101000a900460ff1615610b54576040517f08c379a0000000000000000000000000000000000000000000000000000000008152600401610b4b9061257d565b60405180910390fd5b6000815111610b98576040517f08c379a0000000000000000000000000000000000000000000000000000000008152600401610b8f9061260f565b60405180910390fd5b610ba382600161156f565b6001600860006101000a81548160ff0219169083151502179055508060079081610bcd9190612361565b505050565b610bda6110c5565b600073ffffffffffffffffffffffffffffffffffffffff168173ffffffffffffffffffffffffffffffffffffffff1603610c4c5760006040517f1e4fbdf7000000000000000000000000000000000000000000000000000000008152600401610c439190611bd7565b60405180910390fd5b610c558161114c565b50565b6060600073ffffffffffffffffffffffffffffffffffffffff16610c7c6001611381565b73ffffffffffffffffffffffffffffffffffffffff1603610cd2576040517f08c379a0000000000000000000000000000000000000000000000000000000008152600401610cc990612195565b60405180910390fd5b60078054610cdf906120e1565b80601f0160208091040260200160405190810160405280929190818152602001828054610d0b906120e1565b8015610d585780601f10610d2d57610100808354040283529160200191610d58565b820191906000526020600020905b815481529060010190602001808311610d3b57829003601f168201915b5050505050905090565b60007f01ffc9a7000000000000000000000000000000000000000000000000000000007bffffffffffffffffffffffffffffffffffffffffffffffffffffffff1916827bffffffffffffffffffffffffffffffffffffffffffffffffffffffff1916149050919050565b600080610dd883611381565b9050600073ffffffffffffffffffffffffffffffffffffffff168173ffffffffffffffffffffffffffffffffffffffff1603610e4b57826040517f7e273289000000000000000000000000000000000000000000000000000000008152600401610e429190611ced565b60405180910390fd5b80915050919050565b60006004600083815260200190815260200160002060009054906101000a900473ffffffffffffffffffffffffffffffffffffffff169050919050565b600033905090565b610ea68383836001611668565b505050565b600080610eb784611381565b9050600073ffffffffffffffffffffffffffffffffffffffff168373ffffffffffffffffffffffffffffffffffffffff1614610ef957610ef881848661182d565b5b600073ffffffffffffffffffffffffffffffffffffffff168173ffffffffffffffffffffffffffffffffffffffff1614610f8a57610f3b600085600080611668565b6001600360008373ffffffffffffffffffffffffffffffffffffffff1673ffffffffffffffffffffffffffffffffffffffff168152602001908152602001600020600082825403925050819055505b600073ffffffffffffffffffffffffffffffffffffffff168573ffffffffffffffffffffffffffffffffffffffff161461100d576001600360008773ffffffffffffffffffffffffffffffffffffffff1673ffffffffffffffffffffffffffffffffffffffff168152602001908152602001600020600082825401925050819055505b846002600086815260200190815260200160002060006101000a81548173ffffffffffffffffffffffffffffffffffffffff021916908373ffffffffffffffffffffffffffffffffffffffff160217905550838573ffffffffffffffffffffffffffffffffffffffff168273ffffffffffffffffffffffffffffffffffffffff167fddf252ad1be2c89b69c2b068fc378daa952ba7f163c4a11628f55a4df523b3ef60405160405180910390a4809150509392505050565b6110cd610e91565b73ffffffffffffffffffffffffffffffffffffffff166110eb610790565b73ffffffffffffffffffffffffffffffffffffffff161461114a5761110e610e91565b6040517f118cdaa70000000000000000000000000000000000000000000000000000000081526004016111419190611bd7565b60405180910390fd5b565b6000600660009054906101000a900473ffffffffffffffffffffffffffffffffffffffff16905081600660006101000a81548173ffffffffffffffffffffffffffffffffffffffff021916908373ffffffffffffffffffffffffffffffffffffffff1602179055508173ffffffffffffffffffffffffffffffffffffffff168173ffffffffffffffffffffffffffffffffffffffff167f8be0079c531659141344cd1fd0a4f28419497f9722a3daafe3b4186f6b6457e060405160405180910390a35050565b600073ffffffffffffffffffffffffffffffffffffffff168273ffffffffffffffffffffffffffffffffffffffff160361128357816040517f5b08ba1800000000000000000000000000000000000000000000000000000000815260040161127a9190611bd7565b60405180910390fd5b80600560008573ffffffffffffffffffffffffffffffffffffffff1673ffffffffffffffffffffffffffffffffffffffff16815260200190815260200160002060008473ffffffffffffffffffffffffffffffffffffffff1673ffffffffffffffffffffffffffffffffffffffff16815260200190815260200160002060006101000a81548160ff0219169083151502179055508173ffffffffffffffffffffffffffffffffffffffff168373ffffffffffffffffffffffffffffffffffffffff167f17307eab39ab6107e8899845ad3d59bd9653f200f220920489ca2b5937696c31836040516113749190611a66565b60405180910390a3505050565b60006002600083815260200190815260200160002060009054906101000a900473ffffffffffffffffffffffffffffffffffffffff169050919050565b60008373ffffffffffffffffffffffffffffffffffffffff163b1115611568578273ffffffffffffffffffffffffffffffffffffffff1663150b7a02868685856040518563ffffffff1660e01b815260040161141d9493929190612684565b6020604051808303816000875af192505050801561145957506040513d601f19601f8201168201806040525081019061145691906126e5565b60015b6114dd573d8060008114611489576040519150601f19603f3d011682016040523d82523d6000602084013e61148e565b606091505b5060008151036114d557836040517f64a0ae920000000000000000000000000000000000000000000000000000000081526004016114cc9190611bd7565b60405180910390fd5b805181602001fd5b63150b7a0260e01b7bffffffffffffffffffffffffffffffffffffffffffffffffffffffff1916817bffffffffffffffffffffffffffffffffffffffffffffffffffffffff19161461156657836040517f64a0ae9200000000000000000000000000000000000000000000000000000000815260040161155d9190611bd7565b60405180910390fd5b505b5050505050565b600073ffffffffffffffffffffffffffffffffffffffff168273ffffffffffffffffffffffffffffffffffffffff16036115e15760006040517f64a0ae920000000000000000000000000000000000000000000000000000000081526004016115d89190611bd7565b60405180910390fd5b60006115ef83836000610eab565b9050600073ffffffffffffffffffffffffffffffffffffffff168173ffffffffffffffffffffffffffffffffffffffff16146116635760006040517f73c6ac6e00000000000000000000000000000000000000000000000000000000815260040161165a9190611bd7565b60405180910390fd5b505050565b80806116a15750600073ffffffffffffffffffffffffffffffffffffffff168273ffffffffffffffffffffffffffffffffffffffff1614155b156117d55760006116b184610dcc565b9050600073ffffffffffffffffffffffffffffffffffffffff168373ffffffffffffffffffffffffffffffffffffffff161415801561171c57508273ffffffffffffffffffffffffffffffffffffffff168173ffffffffffffffffffffffffffffffffffffffff1614155b801561172f575061172d8184610a68565b155b1561177157826040517fa9fbf51f0000000000000000000000000000000000000000000000000000000081526004016117689190611bd7565b60405180910390fd5b81156117d357838573ffffffffffffffffffffffffffffffffffffffff168273ffffffffffffffffffffffffffffffffffffffff167f8c5be1e5ebec7d5bd14f71427d1e84f3dd0314c0f7b2291e5b200ac8c7c3b92560405160405180910390a45b505b836004600085815260200190815260200160002060006101000a81548173ffffffffffffffffffffffffffffffffffffffff021916908373ffffffffffffffffffffffffffffffffffffffff16021790555050505050565b6118388383836118f1565b6118ec57600073ffffffffffffffffffffffffffffffffffffffff168373ffffffffffffffffffffffffffffffffffffffff16036118ad57806040517f7e2732890000000000000000000000000000000000000000000000000000000081526004016118a49190611ced565b60405180910390fd5b81816040517f177e802f0000000000000000000000000000000000000000000000000000000081526004016118e3929190612712565b60405180910390fd5b505050565b60008073ffffffffffffffffffffffffffffffffffffffff168373ffffffffffffffffffffffffffffffffffffffff16141580156119a957508273ffffffffffffffffffffffffffffffffffffffff168473ffffffffffffffffffffffffffffffffffffffff16148061196a57506119698484610a68565b5b806119a857508273ffffffffffffffffffffffffffffffffffffffff1661199083610e54565b73ffffffffffffffffffffffffffffffffffffffff16145b5b90509392505050565b6000604051905090565b600080fd5b600080fd5b60007fffffffff0000000000000000000000000000000000000000000000000000000082169050919050565b6119fb816119c6565b8114611a0657600080fd5b50565b600081359050611a18816119f2565b92915050565b600060208284031215611a3457611a336119bc565b5b6000611a4284828501611a09565b91505092915050565b60008115159050919050565b611a6081611a4b565b82525050565b6000602082019050611a7b6000830184611a57565b92915050565b600081519050919050565b600082825260208201905092915050565b60005b83811015611abb578082015181840152602081019050611aa0565b60008484015250505050565b6000601f19601f8301169050919050565b6000611ae382611a81565b611aed8185611a8c565b9350611afd818560208601611a9d565b611b0681611ac7565b840191505092915050565b60006020820190508181036000830152611b2b8184611ad8565b905092915050565b6000819050919050565b611b4681611b33565b8114611b5157600080fd5b50565b600081359050611b6381611b3d565b92915050565b600060208284031215611b7f57611b7e6119bc565b5b6000611b8d84828501611b54565b91505092915050565b600073ffffffffffffffffffffffffffffffffffffffff82169050919050565b6000611bc182611b96565b9050919050565b611bd181611bb6565b82525050565b6000602082019050611bec6000830184611bc8565b92915050565b611bfb81611bb6565b8114611c0657600080fd5b50565b600081359050611c1881611bf2565b92915050565b60008060408385031215611c3557611c346119bc565b5b6000611c4385828601611c09565b9250506020611c5485828601611b54565b9150509250929050565b600080600060608486031215611c7757611c766119bc565b5b6000611c8586828701611c09565b9350506020611c9686828701611c09565b9250506040611ca786828701611b54565b9150509250925092565b600060208284031215611cc757611cc66119bc565b5b6000611cd584828501611c09565b91505092915050565b611ce781611b33565b82525050565b6000602082019050611d026000830184611cde565b92915050565b611d1181611a4b565b8114611d1c57600080fd5b50565b600081359050611d2e81611d08565b92915050565b60008060408385031215611d4b57611d4a6119bc565b5b6000611d5985828601611c09565b9250506020611d6a85828601611d1f565b9150509250929050565b600080fd5b600080fd5b7f4e487b7100000000000000000000000000000000000000000000000000000000600052604160045260246000fd5b611db682611ac7565b810181811067ffffffffffffffff82111715611dd557611dd4611d7e565b5b80604052505050565b6000611de86119b2565b9050611df48282611dad565b919050565b600067ffffffffffffffff821115611e1457611e13611d7e565b5b611e1d82611ac7565b9050602081019050919050565b82818337600083830152505050565b6000611e4c611e4784611df9565b611dde565b905082815260208101848484011115611e6857611e67611d79565b5b611e73848285611e2a565b509392505050565b600082601f830112611e9057611e8f611d74565b5b8135611ea0848260208601611e39565b91505092915050565b600060208284031215611ebf57611ebe6119bc565b5b600082013567ffffffffffffffff811115611edd57611edc6119c1565b5b611ee984828501611e7b565b91505092915050565b600067ffffffffffffffff821115611f0d57611f0c611d7e565b5b611f1682611ac7565b9050602081019050919050565b6000611f36611f3184611ef2565b611dde565b905082815260208101848484011115611f5257611f51611d79565b5b611f5d848285611e2a565b509392505050565b600082601f830112611f7a57611f79611d74565b5b8135611f8a848260208601611f23565b91505092915050565b60008060008060808587031215611fad57611fac6119bc565b5b6000611fbb87828801611c09565b9450506020611fcc87828801611c09565b9350506040611fdd87828801611b54565b925050606085013567ffffffffffffffff811115611ffe57611ffd6119c1565b5b61200a87828801611f65565b91505092959194509250565b6000806040838503121561202d5761202c6119bc565b5b600061203b85828601611c09565b925050602061204c85828601611c09565b9150509250929050565b6000806040838503121561206d5761206c6119bc565b5b600061207b85828601611c09565b925050602083013567ffffffffffffffff81111561209c5761209b6119c1565b5b6120a885828601611e7b565b9150509250929050565b7f4e487b7100000000000000000000000000000000000000000000000000000000600052602260045260246000fd5b600060028204905060018216806120f957607f821691505b60208210810361210c5761210b6120b2565b5b50919050565b60006060820190506121276000830186611bc8565b6121346020830185611cde565b6121416040830184611bc8565b949350505050565b7f546f6b656e20646f6573206e6f74206578697374000000000000000000000000600082015250565b600061217f601483611a8c565b915061218a82612149565b602082019050919050565b600060208201905081810360008301526121ae81612172565b9050919050565b60008190508160005260206000209050919050565b60006020601f8301049050919050565b600082821b905092915050565b6000600883026122177fffffffffffffffffffffffffffffffffffffffffffffffffffffffffffffffff826121da565b61222186836121da565b95508019841693508086168417925050509392505050565b6000819050919050565b600061225e61225961225484611b33565b612239565b611b33565b9050919050565b6000819050919050565b61227883612243565b61228c61228482612265565b8484546121e7565b825550505050565b600090565b6122a1612294565b6122ac81848461226f565b505050565b5b818110156122d0576122c5600082612299565b6001810190506122b2565b5050565b601f821115612315576122e6816121b5565b6122ef846121ca565b810160208510156122fe578190505b61231261230a856121ca565b8301826122b1565b50505b505050565b600082821c905092915050565b60006123386000198460080261231a565b1980831691505092915050565b60006123518383612327565b9150826002028217905092915050565b61236a82611a81565b67ffffffffffffffff81111561238357612382611d7e565b5b61238d82546120e1565b6123988282856122d4565b600060209050601f8311600181146123cb57600084156123b9578287015190505b6123c38582612345565b86555061242b565b601f1984166123d9866121b5565b60005b82811015612401578489015182556001820191506020850194506020810190506123dc565b8683101561241e578489015161241a601f891682612327565b8355505b6001600288020188555050505b505050505050565b7f4f6e6c79206f6e65204e465420657869737473207769746820494420312e0000600082015250565b6000612469601e83611a8c565b915061247482612433565b602082019050919050565b600060208201905081810360008301526124988161245c565b9050919050565b7f4552433732314d657461646174613a2055524920717565727920666f72206e6f60008201527f6e6578697374656e7420746f6b656e0000000000000000000000000000000000602082015250565b60006124fb602f83611a8c565b91506125068261249f565b604082019050919050565b6000602082019050818103600083015261252a816124ee565b9050919050565b7f4e465420616c7265616479206d696e7465640000000000000000000000000000600082015250565b6000612567601283611a8c565b915061257282612531565b602082019050919050565b600060208201905081810360008301526125968161255a565b9050919050565b7f4f6e2d636861696e206d657461646174612063616e6e6f7420626520656d707460008201527f7900000000000000000000000000000000000000000000000000000000000000602082015250565b60006125f9602183611a8c565b91506126048261259d565b604082019050919050565b60006020820190508181036000830152612628816125ec565b9050919050565b600081519050919050565b600082825260208201905092915050565b60006126568261262f565b612660818561263a565b9350612670818560208601611a9d565b61267981611ac7565b840191505092915050565b60006080820190506126996000830187611bc8565b6126a66020830186611bc8565b6126b36040830185611cde565b81810360608301526126c5818461264b565b905095945050505050565b6000815190506126df816119f2565b92915050565b6000602082840312156126fb576126fa6119bc565b5b6000612709848285016126d0565b91505092915050565b60006040820190506127276000830185611bc8565b6127346020830184611cde565b939250505056fea264697066735822122085fd85d9f1403fb85ab90edf1192a23cb2599bc7c9d7518ea1cd41ee62382f3064736f6c634300081c0033",
  "linkReferences": {},
  "deployedLinkReferences": {}
}