{
  "_format": "hh-sol-artifact-1",
  "contractName": "Girl42",
  "sourceName": "code/contracts/Girl42.sol",
  "abi": [
    {
      "inputs": [
        {
          "internalType": "string",
          "name": "name",
          "type": "string"
        },
        {
          "internalType": "string",
          "name": "symbol",
          "type": "string"
        },
        {
          "internalType": "address",
          "name": "initialOwner",
          "type": "address"
        }
      ],
      "stateMutability": "nonpayable",
      "type": "constructor"
    },
    {
      "inputs": [
        {
          "internalType": "address",
          "name": "sender",
          "type": "address"
        },
        {
          "internalType": "uint256",
          "name": "tokenId",
          "type": "uint256"
        },
        {
          "internalType": "address",
          "name": "owner",
          "type": "address"
        }
      ],
      "name": "ERC721IncorrectOwner",
      "type": "error"
    },
    {
      "inputs": [
        {
          "internalType": "address",
          "name": "operator",
          "type": "address"
        },
        {
          "internalType": "uint256",
          "name": "tokenId",
          "type": "uint256"
        }
      ],
      "name": "ERC721InsufficientApproval",
      "type": "error"
    },
    {
      "inputs": [
        {
          "internalType": "address",
          "name": "approver",
          "type": "address"
        }
      ],
      "name": "ERC721InvalidApprover",
      "type": "error"
    },
    {
      "inputs": [
        {
          "internalType": "address",
          "name": "operator",
          "type": "address"
        }
      ],
      "name": "ERC721InvalidOperator",
      "type": "error"
    },
    {
      "inputs": [
        {
          "internalType": "address",
          "name": "owner",
          "type": "address"
        }
      ],
      "name": "ERC721InvalidOwner",
      "type": "error"
    },
    {
      "inputs": [
        {
          "internalType": "address",
          "name": "receiver",
          "type": "address"
        }
      ],
      "name": "ERC721InvalidReceiver",
      "type": "error"
    },
    {
      "inputs": [
        {
          "internalType": "address",
          "name": "sender",
          "type": "address"
        }
      ],
      "name": "ERC721InvalidSender",
      "type": "error"
    },
    {
      "inputs": [
        {
          "internalType": "uint256",
          "name": "tokenId",
          "type": "uint256"
        }
      ],
      "name": "ERC721NonexistentToken",
      "type": "error"
    },
    {
      "inputs": [
        {
          "internalType": "address",
          "name": "owner",
          "type": "address"
        }
      ],
      "name": "OwnableInvalidOwner",
      "type": "error"
    },
    {
      "inputs": [
        {
          "internalType": "address",
          "name": "account",
          "type": "address"
        }
      ],
      "name": "OwnableUnauthorizedAccount",
      "type": "error"
    },
    {
      "anonymous": false,
      "inputs": [
        {
          "indexed": true,
          "internalType": "address",
          "name": "owner",
          "type": "address"
        },
        {
          "indexed": true,
          "internalType": "address",
          "name": "approved",
          "type": "address"
        },
        {
          "indexed": true,
          "internalType": "uint256",
          "name": "tokenId",
          "type": "uint256"
        }
      ],
      "name": "Approval",
      "type": "event"
    },
    {
      "anonymous": false,
      "inputs": [
        {
          "indexed": true,
          "internalType": "address",
          "name": "owner",
          "type": "address"
        },
        {
          "indexed": true,
          "internalType": "address",
          "name": "operator",
          "type": "address"
        },
        {
          "indexed": false,
          "internalType": "bool",
          "name": "approved",
          "type": "bool"
        }
      ],
      "name": "ApprovalForAll",
      "type": "event"
    },
    {
      "anonymous": false,
      "inputs": [
        {
          "indexed": true,
          "internalType": "address",
          "name": "previousOwner",
          "type": "address"
        },
        {
          "indexed": true,
          "internalType": "address",
          "name": "newOwner",
          "type": "address"
        }
      ],
      "name": "OwnershipTransferred",
      "type": "event"
    },
    {
      "anonymous": false,
      "inputs": [
        {
          "indexed": true,
          "internalType": "address",
          "name": "from",
          "type": "address"
        },
        {
          "indexed": true,
          "internalType": "address",
          "name": "to",
          "type": "address"
        },
        {
          "indexed": true,
          "internalType": "uint256",
          "name": "tokenId",
          "type": "uint256"
        }
      ],
      "name": "Transfer",
      "type": "event"
    },
    {
      "inputs": [
        {
          "internalType": "address",
          "name": "to",
          "type": "address"
        },
        {
          "internalType": "uint256",
          "name": "tokenId",
          "type": "uint256"
        }
      ],
      "name": "approve",
      "outputs": [],
      "stateMutability": "nonpayable",
      "type": "function"
    },
    {
      "inputs": [
        {
          "internalType": "address",
          "name": "owner",
          "type": "address"
        }
      ],
      "name": "balanceOf",
      "outputs": [
        {
          "internalType": "uint256",
          "name": "",
          "type": "uint256"
        }
      ],
      "stateMutability": "view",
      "type": "function"
    },
    {
      "inputs": [],
      "name": "exists",
      "outputs": [
        {
          "internalType": "bool",
          "name": "",
          "type": "bool"
        }
      ],
      "stateMutability": "view",
      "type": "function"
    },
    {
      "inputs": [
        {
          "internalType": "uint256",
          "name": "tokenId",
          "type": "uint256"
        }
      ],
      "name": "getApproved",
      "outputs": [
        {
          "internalType": "address",
          "name": "",
          "type": "address"
        }
      ],
      "stateMutability": "view",
      "type": "function"
    },
    {
      "inputs": [],
      "name": "getIPFSURI",
      "outputs": [
        {
          "internalType": "string",
          "name": "",
          "type": "string"
        }
      ],
      "stateMutability": "view",
      "type": "function"
    },
    {
      "inputs": [],
      "name": "getOnChainImage",
      "outputs": [
        {
          "internalType": "string",
          "name": "",
          "type": "string"
        }
      ],
      "stateMutability": "view",
      "type": "function"
    },
    {
      "inputs": [],
      "name": "getOnChainMetadata",
      "outputs": [
        {
          "internalType": "string",
          "name": "",
          "type": "string"
        }
      ],
      "stateMutability": "view",
      "type": "function"
    },
    {
      "inputs": [
        {
          "internalType": "address",
          "name": "owner",
          "type": "address"
        },
        {
          "internalType": "address",
          "name": "operator",
          "type": "address"
        }
      ],
      "name": "isApprovedForAll",
      "outputs": [
        {
          "internalType": "bool",
          "name": "",
          "type": "bool"
        }
      ],
      "stateMutability": "view",
      "type": "function"
    },
    {
      "inputs": [
        {
          "internalType": "address",
          "name": "recipient",
          "type": "address"
        },
        {
          "internalType": "string",
          "name": "ipfsURI",
          "type": "string"
        },
        {
          "internalType": "string",
          "name": "onChainMetadata",
          "type": "string"
        },
        {
          "internalType": "string",
          "name": "onChainImage",
          "type": "string"
        }
      ],
      "name": "mintNFT",
      "outputs": [],
      "stateMutability": "nonpayable",
      "type": "function"
    },
    {
      "inputs": [],
      "name": "name",
      "outputs": [
        {
          "internalType": "string",
          "name": "",
          "type": "string"
        }
      ],
      "stateMutability": "view",
      "type": "function"
    },
    {
      "inputs": [],
      "name": "owner",
      "outputs": [
        {
          "internalType": "address",
          "name": "",
          "type": "address"
        }
      ],
      "stateMutability": "view",
      "type": "function"
    },
    {
      "inputs": [
        {
          "internalType": "uint256",
          "name": "tokenId",
          "type": "uint256"
        }
      ],
      "name": "ownerOf",
      "outputs": [
        {
          "internalType": "address",
          "name": "",
          "type": "address"
        }
      ],
      "stateMutability": "view",
      "type": "function"
    },
    {
      "inputs": [],
      "name": "renounceOwnership",
      "outputs": [],
      "stateMutability": "nonpayable",
      "type": "function"
    },
    {
      "inputs": [
        {
          "internalType": "address",
          "name": "from",
          "type": "address"
        },
        {
          "internalType": "address",
          "name": "to",
          "type": "address"
        },
        {
          "internalType": "uint256",
          "name": "tokenId",
          "type": "uint256"
        }
      ],
      "name": "safeTransferFrom",
      "outputs": [],
      "stateMutability": "nonpayable",
      "type": "function"
    },
    {
      "inputs": [
        {
          "internalType": "address",
          "name": "from",
          "type": "address"
        },
        {
          "internalType": "address",
          "name": "to",
          "type": "address"
        },
        {
          "internalType": "uint256",
          "name": "tokenId",
          "type": "uint256"
        },
        {
          "internalType": "bytes",
          "name": "data",
          "type": "bytes"
        }
      ],
      "name": "safeTransferFrom",
      "outputs": [],
      "stateMutability": "nonpayable",
      "type": "function"
    },
    {
      "inputs": [
        {
          "internalType": "address",
          "name": "operator",
          "type": "address"
        },
        {
          "internalType": "bool",
          "name": "approved",
          "type": "bool"
        }
      ],
      "name": "setApprovalForAll",
      "outputs": [],
      "stateMutability": "nonpayable",
      "type": "function"
    },
    {
      "inputs": [
        {
          "internalType": "bytes4",
          "name": "interfaceId",
          "type": "bytes4"
        }
      ],
      "name": "supportsInterface",
      "outputs": [
        {
          "internalType": "bool",
          "name": "",
          "type": "bool"
        }
      ],
      "stateMutability": "view",
      "type": "function"
    },
    {
      "inputs": [],
      "name": "symbol",
      "outputs": [
        {
          "internalType": "string",
          "name": "",
          "type": "string"
        }
      ],
      "stateMutability": "view",
      "type": "function"
    },
    {
      "inputs": [
        {
          "internalType": "uint256",
          "name": "tokenId",
          "type": "uint256"
        }
      ],
      "name": "tokenURI",
      "outputs": [
        {
          "internalType": "string",
          "name": "",
          "type": "string"
        }
      ],
      "stateMutability": "view",
      "type": "function"
    },
    {
      "inputs": [
        {
          "internalType": "address",
          "name": "from",
          "type": "address"
        },
        {
          "internalType": "address",
          "name": "to",
          "type": "address"
        },
        {
          "internalType": "uint256",
          "name": "tokenId",
          "type": "uint256"
        }
      ],
      "name": "transferFrom",
      "outputs": [],
      "stateMutability": "nonpayable",
      "type": "function"
    },
    {
      "inputs": [
        {
          "internalType": "address",
          "name": "newOwner",
          "type": "address"
        }
      ],
      "name": "transferOwnership",
      "outputs": [],
      "stateMutability": "nonpayable",
      "type": "function"
    },
    {
      "inputs": [
        {
          "internalType": "string",
          "name": "newIPFSURI",
          "type": "string"
        }
      ],
      "name": "updateIPFSURI",
      "outputs": [],
      "stateMutability": "nonpayable",
      "type": "function"
    },
    {
      "inputs": [
        {
          "internalType": "string",
          "name": "newIPFSURI",
          "type": "string"
        },
        {
          "internalType": "string",
          "name": "newMetadata",
          "type": "string"
        },
        {
          "internalType": "string",
          "name": "newImage",
          "type": "string"
        }
      ],
      "name": "updateMetadata",
      "outputs": [],
      "stateMutability": "nonpayable",
      "type": "function"
    },
    {
      "inputs": [
        {
          "internalType": "string",
          "name": "newImage",
          "type": "string"
        }
      ],
      "name": "updateOnChainImage",
      "outputs": [],
      "stateMutability": "nonpayable",
      "type": "function"
    },
    {
      "inputs": [
        {
          "internalType": "string",
          "name": "newMetadata",
          "type": "string"
        }
      ],
      "name": "updateOnChainMetadata",
      "outputs": [],
      "stateMutability": "nonpayable",
      "type": "function"
    }
  ],
  "bytecode": "0x608060405234801561001057600080fd5b50604051613a25380380613a25833981810160405281019061003291906104e6565b80838381600090816100449190610792565b5080600190816100549190610792565b505050600073ffffffffffffffffffffffffffffffffffffffff168173ffffffffffffffffffffffffffffffffffffffff16036100c95760006040517f1e4fbdf70000000000000000000000000000000000000000000000000000000081526004016100c09190610873565b60405180910390fd5b6100d8816100f060201b60201c565b506100e8816101b660201b60201c565b50505061088e565b6000600660009054906101000a900473ffffffffffffffffffffffffffffffffffffffff16905081600660006101000a81548173ffffffffffffffffffffffffffffffffffffffff021916908373ffffffffffffffffffffffffffffffffffffffff1602179055508173ffffffffffffffffffffffffffffffffffffffff168173ffffffffffffffffffffffffffffffffffffffff167f8be0079c531659141344cd1fd0a4f28419497f9722a3daafe3b4186f6b6457e060405160405180910390a35050565b6101c461024860201b60201c565b600073ffffffffffffffffffffffffffffffffffffffff168173ffffffffffffffffffffffffffffffffffffffff16036102365760006040517f1e4fbdf700000000000000000000000000000000000000000000000000000000815260040161022d9190610873565b60405180910390fd5b610245816100f060201b60201c565b50565b6102566102e160201b60201c565b73ffffffffffffffffffffffffffffffffffffffff1661027a6102e960201b60201c565b73ffffffffffffffffffffffffffffffffffffffff16146102df576102a36102e160201b60201c565b6040517f118cdaa70000000000000000000000000000000000000000000000000000000081526004016102d69190610873565b60405180910390fd5b565b600033905090565b6000600660009054906101000a900473ffffffffffffffffffffffffffffffffffffffff16905090565b6000604051905090565b600080fd5b600080fd5b600080fd5b600080fd5b6000601f19601f8301169050919050565b7f4e487b7100000000000000000000000000000000000000000000000000000000600052604160045260246000fd5b61037a82610331565b810181811067ffffffffffffffff8211171561039957610398610342565b5b80604052505050565b60006103ac610313565b90506103b88282610371565b919050565b600067ffffffffffffffff8211156103d8576103d7610342565b5b6103e182610331565b9050602081019050919050565b60005b8381101561040c5780820151818401526020810190506103f1565b60008484015250505050565b600061042b610426846103bd565b6103a2565b9050828152602081018484840111156104475761044661032c565b5b6104528482856103ee565b509392505050565b600082601f83011261046f5761046e610327565b5b815161047f848260208601610418565b91505092915050565b600073ffffffffffffffffffffffffffffffffffffffff82169050919050565b60006104b382610488565b9050919050565b6104c3816104a8565b81146104ce57600080fd5b50565b6000815190506104e0816104ba565b92915050565b6000806000606084860312156104ff576104fe61031d565b5b600084015167ffffffffffffffff81111561051d5761051c610322565b5b6105298682870161045a565b935050602084015167ffffffffffffffff81111561054a57610549610322565b5b6105568682870161045a565b9250506040610567868287016104d1565b9150509250925092565b600081519050919050565b7f4e487b7100000000000000000000000000000000000000000000000000000000600052602260045260246000fd5b600060028204905060018216806105c357607f821691505b6020821081036105d6576105d561057c565b5b50919050565b60008190508160005260206000209050919050565b60006020601f8301049050919050565b600082821b905092915050565b60006008830261063e7fffffffffffffffffffffffffffffffffffffffffffffffffffffffffffffffff82610601565b6106488683610601565b95508019841693508086168417925050509392505050565b6000819050919050565b6000819050919050565b600061068f61068a61068584610660565b61066a565b610660565b9050919050565b6000819050919050565b6106a983610674565b6106bd6106b582610696565b84845461060e565b825550505050565b600090565b6106d26106c5565b6106dd8184846106a0565b505050565b5b81811015610701576106f66000826106ca565b6001810190506106e3565b5050565b601f82111561074657610717816105dc565b610720846105f1565b8101602085101561072f578190505b61074361073b856105f1565b8301826106e2565b50505b505050565b600082821c905092915050565b60006107696000198460080261074b565b1980831691505092915050565b60006107828383610758565b9150826002028217905092915050565b61079b82610571565b67ffffffffffffffff8111156107b4576107b3610342565b5b6107be82546105ab565b6107c9828285610705565b600060209050601f8311600181146107fc57600084156107ea578287015190505b6107f48582610776565b86555061085c565b601f19841661080a866105dc565b60005b828110156108325784890151825560018201915060208501945060208101905061080d565b8683101561084f578489015161084b601f891682610758565b8355505b6001600288020188555050505b505050505050565b61086d816104a8565b82525050565b60006020820190506108886000830184610864565b92915050565b6131888061089d6000396000f3fe608060405234801561001057600080fd5b50600436106101735760003560e01c80637791d3f3116100de578063b88d4fde11610097578063e985e9c511610071578063e985e9c514610420578063eb4306e714610450578063f2fde38b1461046e578063ff410db31461048a57610173565b8063b88d4fde146103b8578063c87b56dd146103d4578063db2a45701461040457610173565b80637791d3f31461030c5780638da5cb5b1461032857806395d89b4114610346578063a22cb46514610364578063a83e367214610380578063b7b343181461039c57610173565b8063267c4ae411610130578063267c4ae41461024c57806328718b041461026a57806342842e0e146102865780636352211e146102a257806370a08231146102d2578063715018a61461030257610173565b806301ffc9a71461017857806306fdde03146101a8578063081812fc146101c657806308865d19146101f6578063095ea7b31461021457806323b872dd14610230575b600080fd5b610192600480360381019061018d9190611f81565b6104a8565b60405161019f9190611fc9565b60405180910390f35b6101b061058a565b6040516101bd9190612074565b60405180910390f35b6101e060048036038101906101db91906120cc565b61061c565b6040516101ed919061213a565b60405180910390f35b6101fe610638565b60405161020b9190612074565b60405180910390f35b61022e60048036038101906102299190612181565b610745565b005b61024a600480360381019061024591906121c1565b61075b565b005b61025461085d565b6040516102619190611fc9565b60405180910390f35b610284600480360381019061027f9190612349565b610874565b005b6102a0600480360381019061029b91906121c1565b61090a565b005b6102bc60048036038101906102b791906120cc565b61092a565b6040516102c9919061213a565b60405180910390f35b6102ec60048036038101906102e79190612392565b61093c565b6040516102f991906123ce565b60405180910390f35b61030a6109f6565b005b610326600480360381019061032191906123e9565b610a0a565b005b610330610bbc565b60405161033d919061213a565b60405180910390f35b61034e610be6565b60405161035b9190612074565b60405180910390f35b61037e600480360381019061037991906124d0565b610c78565b005b61039a60048036038101906103959190612349565b610c8e565b005b6103b660048036038101906103b19190612349565b610d24565b005b6103d260048036038101906103cd91906125b1565b610dba565b005b6103ee60048036038101906103e991906120cc565b610ddf565b6040516103fb9190612074565b60405180910390f35b61041e60048036038101906104199190612634565b610edb565b005b61043a600480360381019061043591906126db565b610f91565b6040516104479190611fc9565b60405180910390f35b610458611025565b6040516104659190612074565b60405180910390f35b61048860048036038101906104839190612392565b611132565b005b6104926111b8565b60405161049f9190612074565b60405180910390f35b60007f80ac58cd000000000000000000000000000000000000000000000000000000007bffffffffffffffffffffffffffffffffffffffffffffffffffffffff1916827bffffffffffffffffffffffffffffffffffffffffffffffffffffffff1916148061057357507f5b5e139f000000000000000000000000000000000000000000000000000000007bffffffffffffffffffffffffffffffffffffffffffffffffffffffff1916827bffffffffffffffffffffffffffffffffffffffffffffffffffffffff1916145b806105835750610582826112c5565b5b9050919050565b6060600080546105999061274a565b80601f01602080910402602001604051908101604052809291908181526020018280546105c59061274a565b80156106125780601f106105e757610100808354040283529160200191610612565b820191906000526020600020905b8154815290600101906020018083116105f557829003601f168201915b5050505050905090565b60006106278261132f565b50610631826113b7565b9050919050565b6060600073ffffffffffffffffffffffffffffffffffffffff1661065c60016113f4565b73ffffffffffffffffffffffffffffffffffffffff16036106b2576040517f08c379a00000000000000000000000000000000000000000000000000000000081526004016106a9906127c7565b60405180910390fd5b600760000180546106c29061274a565b80601f01602080910402602001604051908101604052809291908181526020018280546106ee9061274a565b801561073b5780601f106107105761010080835404028352916020019161073b565b820191906000526020600020905b81548152906001019060200180831161071e57829003601f168201915b5050505050905090565b6107578282610752611431565b611439565b5050565b600073ffffffffffffffffffffffffffffffffffffffff168273ffffffffffffffffffffffffffffffffffffffff16036107cd5760006040517f64a0ae920000000000000000000000000000000000000000000000000000000081526004016107c4919061213a565b60405180910390fd5b60006107e183836107dc611431565b61144b565b90508373ffffffffffffffffffffffffffffffffffffffff168173ffffffffffffffffffffffffffffffffffffffff1614610857578382826040517f64283d7b00000000000000000000000000000000000000000000000000000000815260040161084e939291906127e7565b60405180910390fd5b50505050565b6000600a60009054906101000a900460ff16905090565b61087c611665565b600073ffffffffffffffffffffffffffffffffffffffff1661089e60016113f4565b73ffffffffffffffffffffffffffffffffffffffff16036108f4576040517f08c379a00000000000000000000000000000000000000000000000000000000081526004016108eb906127c7565b60405180910390fd5b806007600001908161090691906129ca565b5050565b61092583838360405180602001604052806000815250610dba565b505050565b60006109358261132f565b9050919050565b60008073ffffffffffffffffffffffffffffffffffffffff168273ffffffffffffffffffffffffffffffffffffffff16036109af5760006040517f89c62b640000000000000000000000000000000000000000000000000000000081526004016109a6919061213a565b60405180910390fd5b600360008373ffffffffffffffffffffffffffffffffffffffff1673ffffffffffffffffffffffffffffffffffffffff168152602001908152602001600020549050919050565b6109fe611665565b610a0860006116ec565b565b610a12611665565b600a60009054906101000a900460ff1615610a62576040517f08c379a0000000000000000000000000000000000000000000000000000000008152600401610a5990612ae8565b60405180910390fd5b6000835111610aa6576040517f08c379a0000000000000000000000000000000000000000000000000000000008152600401610a9d90612b54565b60405180910390fd5b6000825111610aea576040517f08c379a0000000000000000000000000000000000000000000000000000000008152600401610ae190612be6565b60405180910390fd5b6000815111610b2e576040517f08c379a0000000000000000000000000000000000000000000000000000000008152600401610b2590612c52565b60405180910390fd5b610b398460016117b2565b6001600a60006101000a81548160ff02191690831515021790555060405180606001604052808481526020018381526020018281525060076000820151816000019081610b8691906129ca565b506020820151816001019081610b9c91906129ca565b506040820151816002019081610bb291906129ca565b5090505050505050565b6000600660009054906101000a900473ffffffffffffffffffffffffffffffffffffffff16905090565b606060018054610bf59061274a565b80601f0160208091040260200160405190810160405280929190818152602001828054610c219061274a565b8015610c6e5780601f10610c4357610100808354040283529160200191610c6e565b820191906000526020600020905b815481529060010190602001808311610c5157829003601f168201915b5050505050905090565b610c8a610c83611431565b83836118ab565b5050565b610c96611665565b600073ffffffffffffffffffffffffffffffffffffffff16610cb860016113f4565b73ffffffffffffffffffffffffffffffffffffffff1603610d0e576040517f08c379a0000000000000000000000000000000000000000000000000000000008152600401610d05906127c7565b60405180910390fd5b8060076001019081610d2091906129ca565b5050565b610d2c611665565b600073ffffffffffffffffffffffffffffffffffffffff16610d4e60016113f4565b73ffffffffffffffffffffffffffffffffffffffff1603610da4576040517f08c379a0000000000000000000000000000000000000000000000000000000008152600401610d9b906127c7565b60405180910390fd5b8060076002019081610db691906129ca565b5050565b610dc584848461075b565b610dd9610dd0611431565b85858585611a1a565b50505050565b606060018214610e24576040517f08c379a0000000000000000000000000000000000000000000000000000000008152600401610e1b90612cbe565b60405180910390fd5b600073ffffffffffffffffffffffffffffffffffffffff16610e45836113f4565b73ffffffffffffffffffffffffffffffffffffffff1603610e9b576040517f08c379a0000000000000000000000000000000000000000000000000000000008152600401610e9290612d50565b60405180910390fd5b610ea361058a565b600760020160076001016007600001604051602001610ec59493929190612fd1565b6040516020818303038152906040529050919050565b610ee3611665565b600a60009054906101000a900460ff16610f32576040517f08c379a0000000000000000000000000000000000000000000000000000000008152600401610f29906127c7565b60405180910390fd5b600083511115610f50578260076000019081610f4e91906129ca565b505b600082511115610f6e578160076001019081610f6c91906129ca565b505b600081511115610f8c578060076002019081610f8a91906129ca565b505b505050565b6000600560008473ffffffffffffffffffffffffffffffffffffffff1673ffffffffffffffffffffffffffffffffffffffff16815260200190815260200160002060008373ffffffffffffffffffffffffffffffffffffffff1673ffffffffffffffffffffffffffffffffffffffff16815260200190815260200160002060009054906101000a900460ff16905092915050565b6060600073ffffffffffffffffffffffffffffffffffffffff1661104960016113f4565b73ffffffffffffffffffffffffffffffffffffffff160361109f576040517f08c379a0000000000000000000000000000000000000000000000000000000008152600401611096906127c7565b60405180910390fd5b600760020180546110af9061274a565b80601f01602080910402602001604051908101604052809291908181526020018280546110db9061274a565b80156111285780601f106110fd57610100808354040283529160200191611128565b820191906000526020600020905b81548152906001019060200180831161110b57829003601f168201915b5050505050905090565b61113a611665565b600073ffffffffffffffffffffffffffffffffffffffff168173ffffffffffffffffffffffffffffffffffffffff16036111ac5760006040517f1e4fbdf70000000000000000000000000000000000000000000000000000000081526004016111a3919061213a565b60405180910390fd5b6111b5816116ec565b50565b6060600073ffffffffffffffffffffffffffffffffffffffff166111dc60016113f4565b73ffffffffffffffffffffffffffffffffffffffff1603611232576040517f08c379a0000000000000000000000000000000000000000000000000000000008152600401611229906127c7565b60405180910390fd5b600760010180546112429061274a565b80601f016020809104026020016040519081016040528092919081815260200182805461126e9061274a565b80156112bb5780601f10611290576101008083540402835291602001916112bb565b820191906000526020600020905b81548152906001019060200180831161129e57829003601f168201915b5050505050905090565b60007f01ffc9a7000000000000000000000000000000000000000000000000000000007bffffffffffffffffffffffffffffffffffffffffffffffffffffffff1916827bffffffffffffffffffffffffffffffffffffffffffffffffffffffff1916149050919050565b60008061133b836113f4565b9050600073ffffffffffffffffffffffffffffffffffffffff168173ffffffffffffffffffffffffffffffffffffffff16036113ae57826040517f7e2732890000000000000000000000000000000000000000000000000000000081526004016113a591906123ce565b60405180910390fd5b80915050919050565b60006004600083815260200190815260200160002060009054906101000a900473ffffffffffffffffffffffffffffffffffffffff169050919050565b60006002600083815260200190815260200160002060009054906101000a900473ffffffffffffffffffffffffffffffffffffffff169050919050565b600033905090565b6114468383836001611bcb565b505050565b600080611457846113f4565b9050600073ffffffffffffffffffffffffffffffffffffffff168373ffffffffffffffffffffffffffffffffffffffff161461149957611498818486611d90565b5b600073ffffffffffffffffffffffffffffffffffffffff168173ffffffffffffffffffffffffffffffffffffffff161461152a576114db600085600080611bcb565b6001600360008373ffffffffffffffffffffffffffffffffffffffff1673ffffffffffffffffffffffffffffffffffffffff168152602001908152602001600020600082825403925050819055505b600073ffffffffffffffffffffffffffffffffffffffff168573ffffffffffffffffffffffffffffffffffffffff16146115ad576001600360008773ffffffffffffffffffffffffffffffffffffffff1673ffffffffffffffffffffffffffffffffffffffff168152602001908152602001600020600082825401925050819055505b846002600086815260200190815260200160002060006101000a81548173ffffffffffffffffffffffffffffffffffffffff021916908373ffffffffffffffffffffffffffffffffffffffff160217905550838573ffffffffffffffffffffffffffffffffffffffff168273ffffffffffffffffffffffffffffffffffffffff167fddf252ad1be2c89b69c2b068fc378daa952ba7f163c4a11628f55a4df523b3ef60405160405180910390a4809150509392505050565b61166d611431565b73ffffffffffffffffffffffffffffffffffffffff1661168b610bbc565b73ffffffffffffffffffffffffffffffffffffffff16146116ea576116ae611431565b6040517f118cdaa70000000000000000000000000000000000000000000000000000000081526004016116e1919061213a565b60405180910390fd5b565b6000600660009054906101000a900473ffffffffffffffffffffffffffffffffffffffff16905081600660006101000a81548173ffffffffffffffffffffffffffffffffffffffff021916908373ffffffffffffffffffffffffffffffffffffffff1602179055508173ffffffffffffffffffffffffffffffffffffffff168173ffffffffffffffffffffffffffffffffffffffff167f8be0079c531659141344cd1fd0a4f28419497f9722a3daafe3b4186f6b6457e060405160405180910390a35050565b600073ffffffffffffffffffffffffffffffffffffffff168273ffffffffffffffffffffffffffffffffffffffff16036118245760006040517f64a0ae9200000000000000000000000000000000000000000000000000000000815260040161181b919061213a565b60405180910390fd5b60006118328383600061144b565b9050600073ffffffffffffffffffffffffffffffffffffffff168173ffffffffffffffffffffffffffffffffffffffff16146118a65760006040517f73c6ac6e00000000000000000000000000000000000000000000000000000000815260040161189d919061213a565b60405180910390fd5b505050565b600073ffffffffffffffffffffffffffffffffffffffff168273ffffffffffffffffffffffffffffffffffffffff160361191c57816040517f5b08ba18000000000000000000000000000000000000000000000000000000008152600401611913919061213a565b60405180910390fd5b80600560008573ffffffffffffffffffffffffffffffffffffffff1673ffffffffffffffffffffffffffffffffffffffff16815260200190815260200160002060008473ffffffffffffffffffffffffffffffffffffffff1673ffffffffffffffffffffffffffffffffffffffff16815260200190815260200160002060006101000a81548160ff0219169083151502179055508173ffffffffffffffffffffffffffffffffffffffff168373ffffffffffffffffffffffffffffffffffffffff167f17307eab39ab6107e8899845ad3d59bd9653f200f220920489ca2b5937696c3183604051611a0d9190611fc9565b60405180910390a3505050565b60008373ffffffffffffffffffffffffffffffffffffffff163b1115611bc4578273ffffffffffffffffffffffffffffffffffffffff1663150b7a02868685856040518563ffffffff1660e01b8152600401611a79949392919061309b565b6020604051808303816000875af1925050508015611ab557506040513d601f19601f82011682018060405250810190611ab291906130fc565b60015b611b39573d8060008114611ae5576040519150601f19603f3d011682016040523d82523d6000602084013e611aea565b606091505b506000815103611b3157836040517f64a0ae92000000000000000000000000000000000000000000000000000000008152600401611b28919061213a565b60405180910390fd5b805181602001fd5b63150b7a0260e01b7bffffffffffffffffffffffffffffffffffffffffffffffffffffffff1916817bffffffffffffffffffffffffffffffffffffffffffffffffffffffff191614611bc257836040517f64a0ae92000000000000000000000000000000000000000000000000000000008152600401611bb9919061213a565b60405180910390fd5b505b5050505050565b8080611c045750600073ffffffffffffffffffffffffffffffffffffffff168273ffffffffffffffffffffffffffffffffffffffff1614155b15611d38576000611c148461132f565b9050600073ffffffffffffffffffffffffffffffffffffffff168373ffffffffffffffffffffffffffffffffffffffff1614158015611c7f57508273ffffffffffffffffffffffffffffffffffffffff168173ffffffffffffffffffffffffffffffffffffffff1614155b8015611c925750611c908184610f91565b155b15611cd457826040517fa9fbf51f000000000000000000000000000000000000000000000000000000008152600401611ccb919061213a565b60405180910390fd5b8115611d3657838573ffffffffffffffffffffffffffffffffffffffff168273ffffffffffffffffffffffffffffffffffffffff167f8c5be1e5ebec7d5bd14f71427d1e84f3dd0314c0f7b2291e5b200ac8c7c3b92560405160405180910390a45b505b836004600085815260200190815260200160002060006101000a81548173ffffffffffffffffffffffffffffffffffffffff021916908373ffffffffffffffffffffffffffffffffffffffff16021790555050505050565b611d9b838383611e54565b611e4f57600073ffffffffffffffffffffffffffffffffffffffff168373ffffffffffffffffffffffffffffffffffffffff1603611e1057806040517f7e273289000000000000000000000000000000000000000000000000000000008152600401611e0791906123ce565b60405180910390fd5b81816040517f177e802f000000000000000000000000000000000000000000000000000000008152600401611e46929190613129565b60405180910390fd5b505050565b60008073ffffffffffffffffffffffffffffffffffffffff168373ffffffffffffffffffffffffffffffffffffffff1614158015611f0c57508273ffffffffffffffffffffffffffffffffffffffff168473ffffffffffffffffffffffffffffffffffffffff161480611ecd5750611ecc8484610f91565b5b80611f0b57508273ffffffffffffffffffffffffffffffffffffffff16611ef3836113b7565b73ffffffffffffffffffffffffffffffffffffffff16145b5b90509392505050565b6000604051905090565b600080fd5b600080fd5b60007fffffffff0000000000000000000000000000000000000000000000000000000082169050919050565b611f5e81611f29565b8114611f6957600080fd5b50565b600081359050611f7b81611f55565b92915050565b600060208284031215611f9757611f96611f1f565b5b6000611fa584828501611f6c565b91505092915050565b60008115159050919050565b611fc381611fae565b82525050565b6000602082019050611fde6000830184611fba565b92915050565b600081519050919050565b600082825260208201905092915050565b60005b8381101561201e578082015181840152602081019050612003565b60008484015250505050565b6000601f19601f8301169050919050565b600061204682611fe4565b6120508185611fef565b9350612060818560208601612000565b6120698161202a565b840191505092915050565b6000602082019050818103600083015261208e818461203b565b905092915050565b6000819050919050565b6120a981612096565b81146120b457600080fd5b50565b6000813590506120c6816120a0565b92915050565b6000602082840312156120e2576120e1611f1f565b5b60006120f0848285016120b7565b91505092915050565b600073ffffffffffffffffffffffffffffffffffffffff82169050919050565b6000612124826120f9565b9050919050565b61213481612119565b82525050565b600060208201905061214f600083018461212b565b92915050565b61215e81612119565b811461216957600080fd5b50565b60008135905061217b81612155565b92915050565b6000806040838503121561219857612197611f1f565b5b60006121a68582860161216c565b92505060206121b7858286016120b7565b9150509250929050565b6000806000606084860312156121da576121d9611f1f565b5b60006121e88682870161216c565b93505060206121f98682870161216c565b925050604061220a868287016120b7565b9150509250925092565b600080fd5b600080fd5b7f4e487b7100000000000000000000000000000000000000000000000000000000600052604160045260246000fd5b6122568261202a565b810181811067ffffffffffffffff821117156122755761227461221e565b5b80604052505050565b6000612288611f15565b9050612294828261224d565b919050565b600067ffffffffffffffff8211156122b4576122b361221e565b5b6122bd8261202a565b9050602081019050919050565b82818337600083830152505050565b60006122ec6122e784612299565b61227e565b90508281526020810184848401111561230857612307612219565b5b6123138482856122ca565b509392505050565b600082601f8301126123305761232f612214565b5b81356123408482602086016122d9565b91505092915050565b60006020828403121561235f5761235e611f1f565b5b600082013567ffffffffffffffff81111561237d5761237c611f24565b5b6123898482850161231b565b91505092915050565b6000602082840312156123a8576123a7611f1f565b5b60006123b68482850161216c565b91505092915050565b6123c881612096565b82525050565b60006020820190506123e360008301846123bf565b92915050565b6000806000806080858703121561240357612402611f1f565b5b60006124118782880161216c565b945050602085013567ffffffffffffffff81111561243257612431611f24565b5b61243e8782880161231b565b935050604085013567ffffffffffffffff81111561245f5761245e611f24565b5b61246b8782880161231b565b925050606085013567ffffffffffffffff81111561248c5761248b611f24565b5b6124988782880161231b565b91505092959194509250565b6124ad81611fae565b81146124b857600080fd5b50565b6000813590506124ca816124a4565b92915050565b600080604083850312156124e7576124e6611f1f565b5b60006124f58582860161216c565b9250506020612506858286016124bb565b9150509250929050565b600067ffffffffffffffff82111561252b5761252a61221e565b5b6125348261202a565b9050602081019050919050565b600061255461254f84612510565b61227e565b9050828152602081018484840111156125705761256f612219565b5b61257b8482856122ca565b509392505050565b600082601f83011261259857612597612214565b5b81356125a8848260208601612541565b91505092915050565b600080600080608085870312156125cb576125ca611f1f565b5b60006125d98782880161216c565b94505060206125ea8782880161216c565b93505060406125fb878288016120b7565b925050606085013567ffffffffffffffff81111561261c5761261b611f24565b5b61262887828801612583565b91505092959194509250565b60008060006060848603121561264d5761264c611f1f565b5b600084013567ffffffffffffffff81111561266b5761266a611f24565b5b6126778682870161231b565b935050602084013567ffffffffffffffff81111561269857612697611f24565b5b6126a48682870161231b565b925050604084013567ffffffffffffffff8111156126c5576126c4611f24565b5b6126d18682870161231b565b9150509250925092565b600080604083850312156126f2576126f1611f1f565b5b60006127008582860161216c565b92505060206127118582860161216c565b9150509250929050565b7f4e487b7100000000000000000000000000000000000000000000000000000000600052602260045260246000fd5b6000600282049050600182168061276257607f821691505b6020821081036127755761277461271b565b5b50919050565b7f546f6b656e20646f6573206e6f74206578697374000000000000000000000000600082015250565b60006127b1601483611fef565b91506127bc8261277b565b602082019050919050565b600060208201905081810360008301526127e0816127a4565b9050919050565b60006060820190506127fc600083018661212b565b61280960208301856123bf565b612816604083018461212b565b949350505050565b60008190508160005260206000209050919050565b60006020601f8301049050919050565b600082821b905092915050565b6000600883026128807fffffffffffffffffffffffffffffffffffffffffffffffffffffffffffffffff82612843565b61288a8683612843565b95508019841693508086168417925050509392505050565b6000819050919050565b60006128c76128c26128bd84612096565b6128a2565b612096565b9050919050565b6000819050919050565b6128e1836128ac565b6128f56128ed826128ce565b848454612850565b825550505050565b600090565b61290a6128fd565b6129158184846128d8565b505050565b5b818110156129395761292e600082612902565b60018101905061291b565b5050565b601f82111561297e5761294f8161281e565b61295884612833565b81016020851015612967578190505b61297b61297385612833565b83018261291a565b50505b505050565b600082821c905092915050565b60006129a160001984600802612983565b1980831691505092915050565b60006129ba8383612990565b9150826002028217905092915050565b6129d382611fe4565b67ffffffffffffffff8111156129ec576129eb61221e565b5b6129f6825461274a565b612a0182828561293d565b600060209050601f831160018114612a345760008415612a22578287015190505b612a2c85826129ae565b865550612a94565b601f198416612a428661281e565b60005b82811015612a6a57848901518255600182019150602085019450602081019050612a45565b86831015612a875784890151612a83601f891682612990565b8355505b6001600288020188555050505b505050505050565b7f4e465420616c7265616479206d696e7465640000000000000000000000000000600082015250565b6000612ad2601283611fef565b9150612add82612a9c565b602082019050919050565b60006020820190508181036000830152612b0181612ac5565b9050919050565b7f49504653205552492063616e6e6f7420626520656d7074790000000000000000600082015250565b6000612b3e601883611fef565b9150612b4982612b08565b602082019050919050565b60006020820190508181036000830152612b6d81612b31565b9050919050565b7f4f6e2d636861696e206d657461646174612063616e6e6f7420626520656d707460008201527f7900000000000000000000000000000000000000000000000000000000000000602082015250565b6000612bd0602183611fef565b9150612bdb82612b74565b604082019050919050565b60006020820190508181036000830152612bff81612bc3565b9050919050565b7f4f6e2d636861696e20696d6167652063616e6e6f7420626520656d7074790000600082015250565b6000612c3c601e83611fef565b9150612c4782612c06565b602082019050919050565b60006020820190508181036000830152612c6b81612c2f565b9050919050565b7f4f6e6c79206f6e65204e465420657869737473207769746820494420312e0000600082015250565b6000612ca8601e83611fef565b9150612cb382612c72565b602082019050919050565b60006020820190508181036000830152612cd781612c9b565b9050919050565b7f4552433732314d657461646174613a2055524920717565727920666f72206e6f60008201527f6e6578697374656e7420746f6b656e0000000000000000000000000000000000602082015250565b6000612d3a602f83611fef565b9150612d4582612cde565b604082019050919050565b60006020820190508181036000830152612d6981612d2d565b9050919050565b600081905092915050565b7f7b226e616d65223a220000000000000000000000000000000000000000000000600082015250565b6000612db1600983612d70565b9150612dbc82612d7b565b600982019050919050565b6000612dd282611fe4565b612ddc8185612d70565b9350612dec818560208601612000565b80840191505092915050565b7f222c20226465736372697074696f6e223a224f6e2d636861696e20616e64204960008201527f5046532073746f726564204e4654222c2022696d616765223a22000000000000602082015250565b6000612e54603a83612d70565b9150612e5f82612df8565b603a82019050919050565b60008154612e778161274a565b612e818186612d70565b94506001821660008114612e9c5760018114612eb157612ee4565b60ff1983168652811515820286019350612ee4565b612eba8561281e565b60005b83811015612edc57815481890152600182019150602081019050612ebd565b838801955050505b50505092915050565b7f222c20226d65746164617461223a220000000000000000000000000000000000600082015250565b6000612f23600f83612d70565b9150612f2e82612eed565b600f82019050919050565b7f222c202265787465726e616c5f75726c223a2200000000000000000000000000600082015250565b6000612f6f601383612d70565b9150612f7a82612f39565b601382019050919050565b7f227d000000000000000000000000000000000000000000000000000000000000600082015250565b6000612fbb600283612d70565b9150612fc682612f85565b600282019050919050565b6000612fdc82612da4565b9150612fe88287612dc7565b9150612ff382612e47565b9150612fff8286612e6a565b915061300a82612f16565b91506130168285612e6a565b915061302182612f62565b915061302d8284612e6a565b915061303882612fae565b915081905095945050505050565b600081519050919050565b600082825260208201905092915050565b600061306d82613046565b6130778185613051565b9350613087818560208601612000565b6130908161202a565b840191505092915050565b60006080820190506130b0600083018761212b565b6130bd602083018661212b565b6130ca60408301856123bf565b81810360608301526130dc8184613062565b905095945050505050565b6000815190506130f681611f55565b92915050565b60006020828403121561311257613111611f1f565b5b6000613120848285016130e7565b91505092915050565b600060408201905061313e600083018561212b565b61314b60208301846123bf565b939250505056fea26469706673582212202eb41cd45c215b302a3d221cd293c9f6b019e0ac2ff79f8c9965785b0394d56864736f6c634300081c0033",
  "linkReferences": {},
  "deployedLinkReferences": {}
}