{
  "_format": "hh-sol-artifact-1",
  "contractName": "Girl42",
  "sourceName": "code/contracts/Girl42.sol",
  "abi": [
    {
      "inputs": [
        {
          "internalType": "string",
          "name": "name",
          "type": "string"
        },
        {
          "internalType": "string",
          "name": "symbol",
          "type": "string"
        },
        {
          "internalType": "address",
          "name": "initialOwner",
          "type": "address"
        }
      ],
      "stateMutability": "nonpayable",
      "type": "constructor"
    },
    {
      "inputs": [
        {
          "internalType": "address",
          "name": "sender",
          "type": "address"
        },
        {
          "internalType": "uint256",
          "name": "tokenId",
          "type": "uint256"
        },
        {
          "internalType": "address",
          "name": "owner",
          "type": "address"
        }
      ],
      "name": "ERC721IncorrectOwner",
      "type": "error"
    },
    {
      "inputs": [
        {
          "internalType": "address",
          "name": "operator",
          "type": "address"
        },
        {
          "internalType": "uint256",
          "name": "tokenId",
          "type": "uint256"
        }
      ],
      "name": "ERC721InsufficientApproval",
      "type": "error"
    },
    {
      "inputs": [
        {
          "internalType": "address",
          "name": "approver",
          "type": "address"
        }
      ],
      "name": "ERC721InvalidApprover",
      "type": "error"
    },
    {
      "inputs": [
        {
          "internalType": "address",
          "name": "operator",
          "type": "address"
        }
      ],
      "name": "ERC721InvalidOperator",
      "type": "error"
    },
    {
      "inputs": [
        {
          "internalType": "address",
          "name": "owner",
          "type": "address"
        }
      ],
      "name": "ERC721InvalidOwner",
      "type": "error"
    },
    {
      "inputs": [
        {
          "internalType": "address",
          "name": "receiver",
          "type": "address"
        }
      ],
      "name": "ERC721InvalidReceiver",
      "type": "error"
    },
    {
      "inputs": [
        {
          "internalType": "address",
          "name": "sender",
          "type": "address"
        }
      ],
      "name": "ERC721InvalidSender",
      "type": "error"
    },
    {
      "inputs": [
        {
          "internalType": "uint256",
          "name": "tokenId",
          "type": "uint256"
        }
      ],
      "name": "ERC721NonexistentToken",
      "type": "error"
    },
    {
      "inputs": [
        {
          "internalType": "address",
          "name": "owner",
          "type": "address"
        }
      ],
      "name": "OwnableInvalidOwner",
      "type": "error"
    },
    {
      "inputs": [
        {
          "internalType": "address",
          "name": "account",
          "type": "address"
        }
      ],
      "name": "OwnableUnauthorizedAccount",
      "type": "error"
    },
    {
      "anonymous": false,
      "inputs": [
        {
          "indexed": true,
          "internalType": "address",
          "name": "owner",
          "type": "address"
        },
        {
          "indexed": true,
          "internalType": "address",
          "name": "approved",
          "type": "address"
        },
        {
          "indexed": true,
          "internalType": "uint256",
          "name": "tokenId",
          "type": "uint256"
        }
      ],
      "name": "Approval",
      "type": "event"
    },
    {
      "anonymous": false,
      "inputs": [
        {
          "indexed": true,
          "internalType": "address",
          "name": "owner",
          "type": "address"
        },
        {
          "indexed": true,
          "internalType": "address",
          "name": "operator",
          "type": "address"
        },
        {
          "indexed": false,
          "internalType": "bool",
          "name": "approved",
          "type": "bool"
        }
      ],
      "name": "ApprovalForAll",
      "type": "event"
    },
    {
      "anonymous": false,
      "inputs": [
        {
          "indexed": true,
          "internalType": "address",
          "name": "previousOwner",
          "type": "address"
        },
        {
          "indexed": true,
          "internalType": "address",
          "name": "newOwner",
          "type": "address"
        }
      ],
      "name": "OwnershipTransferred",
      "type": "event"
    },
    {
      "anonymous": false,
      "inputs": [
        {
          "indexed": true,
          "internalType": "address",
          "name": "from",
          "type": "address"
        },
        {
          "indexed": true,
          "internalType": "address",
          "name": "to",
          "type": "address"
        },
        {
          "indexed": true,
          "internalType": "uint256",
          "name": "tokenId",
          "type": "uint256"
        }
      ],
      "name": "Transfer",
      "type": "event"
    },
    {
      "inputs": [
        {
          "internalType": "address",
          "name": "to",
          "type": "address"
        },
        {
          "internalType": "uint256",
          "name": "tokenId",
          "type": "uint256"
        }
      ],
      "name": "approve",
      "outputs": [],
      "stateMutability": "nonpayable",
      "type": "function"
    },
    {
      "inputs": [
        {
          "internalType": "address",
          "name": "owner",
          "type": "address"
        }
      ],
      "name": "balanceOf",
      "outputs": [
        {
          "internalType": "uint256",
          "name": "",
          "type": "uint256"
        }
      ],
      "stateMutability": "view",
      "type": "function"
    },
    {
      "inputs": [],
      "name": "exists",
      "outputs": [
        {
          "internalType": "bool",
          "name": "",
          "type": "bool"
        }
      ],
      "stateMutability": "view",
      "type": "function"
    },
    {
      "inputs": [
        {
          "internalType": "uint256",
          "name": "tokenId",
          "type": "uint256"
        }
      ],
      "name": "getApproved",
      "outputs": [
        {
          "internalType": "address",
          "name": "",
          "type": "address"
        }
      ],
      "stateMutability": "view",
      "type": "function"
    },
    {
      "inputs": [],
      "name": "getIPFSURI",
      "outputs": [
        {
          "internalType": "string",
          "name": "",
          "type": "string"
        }
      ],
      "stateMutability": "view",
      "type": "function"
    },
    {
      "inputs": [],
      "name": "getOnChainImage",
      "outputs": [
        {
          "internalType": "string",
          "name": "",
          "type": "string"
        }
      ],
      "stateMutability": "view",
      "type": "function"
    },
    {
      "inputs": [],
      "name": "getOnChainMetadata",
      "outputs": [
        {
          "internalType": "string",
          "name": "",
          "type": "string"
        }
      ],
      "stateMutability": "view",
      "type": "function"
    },
    {
      "inputs": [
        {
          "internalType": "address",
          "name": "owner",
          "type": "address"
        },
        {
          "internalType": "address",
          "name": "operator",
          "type": "address"
        }
      ],
      "name": "isApprovedForAll",
      "outputs": [
        {
          "internalType": "bool",
          "name": "",
          "type": "bool"
        }
      ],
      "stateMutability": "view",
      "type": "function"
    },
    {
      "inputs": [
        {
          "internalType": "address",
          "name": "recipient",
          "type": "address"
        },
        {
          "internalType": "string",
          "name": "ipfsURILink",
          "type": "string"
        },
        {
          "internalType": "string",
          "name": "onChainMetadata",
          "type": "string"
        },
        {
          "internalType": "string",
          "name": "onChainImage",
          "type": "string"
        }
      ],
      "name": "mintNFT",
      "outputs": [],
      "stateMutability": "nonpayable",
      "type": "function"
    },
    {
      "inputs": [],
      "name": "name",
      "outputs": [
        {
          "internalType": "string",
          "name": "",
          "type": "string"
        }
      ],
      "stateMutability": "view",
      "type": "function"
    },
    {
      "inputs": [],
      "name": "owner",
      "outputs": [
        {
          "internalType": "address",
          "name": "",
          "type": "address"
        }
      ],
      "stateMutability": "view",
      "type": "function"
    },
    {
      "inputs": [
        {
          "internalType": "uint256",
          "name": "tokenId",
          "type": "uint256"
        }
      ],
      "name": "ownerOf",
      "outputs": [
        {
          "internalType": "address",
          "name": "",
          "type": "address"
        }
      ],
      "stateMutability": "view",
      "type": "function"
    },
    {
      "inputs": [],
      "name": "renounceOwnership",
      "outputs": [],
      "stateMutability": "nonpayable",
      "type": "function"
    },
    {
      "inputs": [
        {
          "internalType": "address",
          "name": "from",
          "type": "address"
        },
        {
          "internalType": "address",
          "name": "to",
          "type": "address"
        },
        {
          "internalType": "uint256",
          "name": "tokenId",
          "type": "uint256"
        }
      ],
      "name": "safeTransferFrom",
      "outputs": [],
      "stateMutability": "nonpayable",
      "type": "function"
    },
    {
      "inputs": [
        {
          "internalType": "address",
          "name": "from",
          "type": "address"
        },
        {
          "internalType": "address",
          "name": "to",
          "type": "address"
        },
        {
          "internalType": "uint256",
          "name": "tokenId",
          "type": "uint256"
        },
        {
          "internalType": "bytes",
          "name": "data",
          "type": "bytes"
        }
      ],
      "name": "safeTransferFrom",
      "outputs": [],
      "stateMutability": "nonpayable",
      "type": "function"
    },
    {
      "inputs": [
        {
          "internalType": "address",
          "name": "operator",
          "type": "address"
        },
        {
          "internalType": "bool",
          "name": "approved",
          "type": "bool"
        }
      ],
      "name": "setApprovalForAll",
      "outputs": [],
      "stateMutability": "nonpayable",
      "type": "function"
    },
    {
      "inputs": [
        {
          "internalType": "bytes4",
          "name": "interfaceId",
          "type": "bytes4"
        }
      ],
      "name": "supportsInterface",
      "outputs": [
        {
          "internalType": "bool",
          "name": "",
          "type": "bool"
        }
      ],
      "stateMutability": "view",
      "type": "function"
    },
    {
      "inputs": [],
      "name": "symbol",
      "outputs": [
        {
          "internalType": "string",
          "name": "",
          "type": "string"
        }
      ],
      "stateMutability": "view",
      "type": "function"
    },
    {
      "inputs": [
        {
          "internalType": "uint256",
          "name": "tokenId",
          "type": "uint256"
        }
      ],
      "name": "tokenURI",
      "outputs": [
        {
          "internalType": "string",
          "name": "",
          "type": "string"
        }
      ],
      "stateMutability": "view",
      "type": "function"
    },
    {
      "inputs": [
        {
          "internalType": "address",
          "name": "from",
          "type": "address"
        },
        {
          "internalType": "address",
          "name": "to",
          "type": "address"
        },
        {
          "internalType": "uint256",
          "name": "tokenId",
          "type": "uint256"
        }
      ],
      "name": "transferFrom",
      "outputs": [],
      "stateMutability": "nonpayable",
      "type": "function"
    },
    {
      "inputs": [
        {
          "internalType": "address",
          "name": "newOwner",
          "type": "address"
        }
      ],
      "name": "transferOwnership",
      "outputs": [],
      "stateMutability": "nonpayable",
      "type": "function"
    },
    {
      "inputs": [
        {
          "internalType": "string",
          "name": "newIPFSURI",
          "type": "string"
        }
      ],
      "name": "updateIPFSURI",
      "outputs": [],
      "stateMutability": "nonpayable",
      "type": "function"
    },
    {
      "inputs": [
        {
          "internalType": "string",
          "name": "newIPFSURI",
          "type": "string"
        },
        {
          "internalType": "string",
          "name": "newMetadata",
          "type": "string"
        },
        {
          "internalType": "string",
          "name": "newImage",
          "type": "string"
        }
      ],
      "name": "updateMetadata",
      "outputs": [],
      "stateMutability": "nonpayable",
      "type": "function"
    },
    {
      "inputs": [
        {
          "internalType": "string",
          "name": "newImage",
          "type": "string"
        }
      ],
      "name": "updateOnChainImage",
      "outputs": [],
      "stateMutability": "nonpayable",
      "type": "function"
    },
    {
      "inputs": [
        {
          "internalType": "string",
          "name": "newMetadata",
          "type": "string"
        }
      ],
      "name": "updateOnChainMetadata",
      "outputs": [],
      "stateMutability": "nonpayable",
      "type": "function"
    }
  ],
  "bytecode": "0x608060405234801561001057600080fd5b506040516138f73803806138f7833981810160405281019061003291906104e6565b80838381600090816100449190610792565b5080600190816100549190610792565b505050600073ffffffffffffffffffffffffffffffffffffffff168173ffffffffffffffffffffffffffffffffffffffff16036100c95760006040517f1e4fbdf70000000000000000000000000000000000000000000000000000000081526004016100c09190610873565b60405180910390fd5b6100d8816100f060201b60201c565b506100e8816101b660201b60201c565b50505061088e565b6000600660009054906101000a900473ffffffffffffffffffffffffffffffffffffffff16905081600660006101000a81548173ffffffffffffffffffffffffffffffffffffffff021916908373ffffffffffffffffffffffffffffffffffffffff1602179055508173ffffffffffffffffffffffffffffffffffffffff168173ffffffffffffffffffffffffffffffffffffffff167f8be0079c531659141344cd1fd0a4f28419497f9722a3daafe3b4186f6b6457e060405160405180910390a35050565b6101c461024860201b60201c565b600073ffffffffffffffffffffffffffffffffffffffff168173ffffffffffffffffffffffffffffffffffffffff16036102365760006040517f1e4fbdf700000000000000000000000000000000000000000000000000000000815260040161022d9190610873565b60405180910390fd5b610245816100f060201b60201c565b50565b6102566102e160201b60201c565b73ffffffffffffffffffffffffffffffffffffffff1661027a6102e960201b60201c565b73ffffffffffffffffffffffffffffffffffffffff16146102df576102a36102e160201b60201c565b6040517f118cdaa70000000000000000000000000000000000000000000000000000000081526004016102d69190610873565b60405180910390fd5b565b600033905090565b6000600660009054906101000a900473ffffffffffffffffffffffffffffffffffffffff16905090565b6000604051905090565b600080fd5b600080fd5b600080fd5b600080fd5b6000601f19601f8301169050919050565b7f4e487b7100000000000000000000000000000000000000000000000000000000600052604160045260246000fd5b61037a82610331565b810181811067ffffffffffffffff8211171561039957610398610342565b5b80604052505050565b60006103ac610313565b90506103b88282610371565b919050565b600067ffffffffffffffff8211156103d8576103d7610342565b5b6103e182610331565b9050602081019050919050565b60005b8381101561040c5780820151818401526020810190506103f1565b60008484015250505050565b600061042b610426846103bd565b6103a2565b9050828152602081018484840111156104475761044661032c565b5b6104528482856103ee565b509392505050565b600082601f83011261046f5761046e610327565b5b815161047f848260208601610418565b91505092915050565b600073ffffffffffffffffffffffffffffffffffffffff82169050919050565b60006104b382610488565b9050919050565b6104c3816104a8565b81146104ce57600080fd5b50565b6000815190506104e0816104ba565b92915050565b6000806000606084860312156104ff576104fe61031d565b5b600084015167ffffffffffffffff81111561051d5761051c610322565b5b6105298682870161045a565b935050602084015167ffffffffffffffff81111561054a57610549610322565b5b6105568682870161045a565b9250506040610567868287016104d1565b9150509250925092565b600081519050919050565b7f4e487b7100000000000000000000000000000000000000000000000000000000600052602260045260246000fd5b600060028204905060018216806105c357607f821691505b6020821081036105d6576105d561057c565b5b50919050565b60008190508160005260206000209050919050565b60006020601f8301049050919050565b600082821b905092915050565b60006008830261063e7fffffffffffffffffffffffffffffffffffffffffffffffffffffffffffffffff82610601565b6106488683610601565b95508019841693508086168417925050509392505050565b6000819050919050565b6000819050919050565b600061068f61068a61068584610660565b61066a565b610660565b9050919050565b6000819050919050565b6106a983610674565b6106bd6106b582610696565b84845461060e565b825550505050565b600090565b6106d26106c5565b6106dd8184846106a0565b505050565b5b81811015610701576106f66000826106ca565b6001810190506106e3565b5050565b601f82111561074657610717816105dc565b610720846105f1565b8101602085101561072f578190505b61074361073b856105f1565b8301826106e2565b50505b505050565b600082821c905092915050565b60006107696000198460080261074b565b1980831691505092915050565b60006107828383610758565b9150826002028217905092915050565b61079b82610571565b67ffffffffffffffff8111156107b4576107b3610342565b5b6107be82546105ab565b6107c9828285610705565b600060209050601f8311600181146107fc57600084156107ea578287015190505b6107f48582610776565b86555061085c565b601f19841661080a866105dc565b60005b828110156108325784890151825560018201915060208501945060208101905061080d565b8683101561084f578489015161084b601f891682610758565b8355505b6001600288020188555050505b505050505050565b61086d816104a8565b82525050565b60006020820190506108886000830184610864565b92915050565b61305a8061089d6000396000f3fe608060405234801561001057600080fd5b50600436106101735760003560e01c80637791d3f3116100de578063b88d4fde11610097578063e985e9c511610071578063e985e9c514610420578063eb4306e714610450578063f2fde38b1461046e578063ff410db31461048a57610173565b8063b88d4fde146103b8578063c87b56dd146103d4578063db2a45701461040457610173565b80637791d3f31461030c5780638da5cb5b1461032857806395d89b4114610346578063a22cb46514610364578063a83e367214610380578063b7b343181461039c57610173565b8063267c4ae411610130578063267c4ae41461024c57806328718b041461026a57806342842e0e146102865780636352211e146102a257806370a08231146102d2578063715018a61461030257610173565b806301ffc9a71461017857806306fdde03146101a8578063081812fc146101c657806308865d19146101f6578063095ea7b31461021457806323b872dd14610230575b600080fd5b610192600480360381019061018d9190611f72565b6104a8565b60405161019f9190611fba565b60405180910390f35b6101b061058a565b6040516101bd9190612065565b60405180910390f35b6101e060048036038101906101db91906120bd565b61061c565b6040516101ed919061212b565b60405180910390f35b6101fe610638565b60405161020b9190612065565b60405180910390f35b61022e60048036038101906102299190612172565b610745565b005b61024a600480360381019061024591906121b2565b61075b565b005b61025461085d565b6040516102619190611fba565b60405180910390f35b610284600480360381019061027f919061233a565b610874565b005b6102a0600480360381019061029b91906121b2565b61090a565b005b6102bc60048036038101906102b791906120bd565b61092a565b6040516102c9919061212b565b60405180910390f35b6102ec60048036038101906102e79190612383565b61093c565b6040516102f991906123bf565b60405180910390f35b61030a6109f6565b005b610326600480360381019061032191906123da565b610a0a565b005b610330610bbc565b60405161033d919061212b565b60405180910390f35b61034e610be6565b60405161035b9190612065565b60405180910390f35b61037e600480360381019061037991906124c1565b610c78565b005b61039a6004803603810190610395919061233a565b610c8e565b005b6103b660048036038101906103b1919061233a565b610d24565b005b6103d260048036038101906103cd91906125a2565b610dba565b005b6103ee60048036038101906103e991906120bd565b610ddf565b6040516103fb9190612065565b60405180910390f35b61041e60048036038101906104199190612625565b610ecc565b005b61043a600480360381019061043591906126cc565b610f82565b6040516104479190611fba565b60405180910390f35b610458611016565b6040516104659190612065565b60405180910390f35b61048860048036038101906104839190612383565b611123565b005b6104926111a9565b60405161049f9190612065565b60405180910390f35b60007f80ac58cd000000000000000000000000000000000000000000000000000000007bffffffffffffffffffffffffffffffffffffffffffffffffffffffff1916827bffffffffffffffffffffffffffffffffffffffffffffffffffffffff1916148061057357507f5b5e139f000000000000000000000000000000000000000000000000000000007bffffffffffffffffffffffffffffffffffffffffffffffffffffffff1916827bffffffffffffffffffffffffffffffffffffffffffffffffffffffff1916145b806105835750610582826112b6565b5b9050919050565b6060600080546105999061273b565b80601f01602080910402602001604051908101604052809291908181526020018280546105c59061273b565b80156106125780601f106105e757610100808354040283529160200191610612565b820191906000526020600020905b8154815290600101906020018083116105f557829003601f168201915b5050505050905090565b600061062782611320565b50610631826113a8565b9050919050565b6060600073ffffffffffffffffffffffffffffffffffffffff1661065c60016113e5565b73ffffffffffffffffffffffffffffffffffffffff16036106b2576040517f08c379a00000000000000000000000000000000000000000000000000000000081526004016106a9906127b8565b60405180910390fd5b600760000180546106c29061273b565b80601f01602080910402602001604051908101604052809291908181526020018280546106ee9061273b565b801561073b5780601f106107105761010080835404028352916020019161073b565b820191906000526020600020905b81548152906001019060200180831161071e57829003601f168201915b5050505050905090565b6107578282610752611422565b61142a565b5050565b600073ffffffffffffffffffffffffffffffffffffffff168273ffffffffffffffffffffffffffffffffffffffff16036107cd5760006040517f64a0ae920000000000000000000000000000000000000000000000000000000081526004016107c4919061212b565b60405180910390fd5b60006107e183836107dc611422565b61143c565b90508373ffffffffffffffffffffffffffffffffffffffff168173ffffffffffffffffffffffffffffffffffffffff1614610857578382826040517f64283d7b00000000000000000000000000000000000000000000000000000000815260040161084e939291906127d8565b60405180910390fd5b50505050565b6000600a60009054906101000a900460ff16905090565b61087c611656565b600073ffffffffffffffffffffffffffffffffffffffff1661089e60016113e5565b73ffffffffffffffffffffffffffffffffffffffff16036108f4576040517f08c379a00000000000000000000000000000000000000000000000000000000081526004016108eb906127b8565b60405180910390fd5b806007600001908161090691906129bb565b5050565b61092583838360405180602001604052806000815250610dba565b505050565b600061093582611320565b9050919050565b60008073ffffffffffffffffffffffffffffffffffffffff168273ffffffffffffffffffffffffffffffffffffffff16036109af5760006040517f89c62b640000000000000000000000000000000000000000000000000000000081526004016109a6919061212b565b60405180910390fd5b600360008373ffffffffffffffffffffffffffffffffffffffff1673ffffffffffffffffffffffffffffffffffffffff168152602001908152602001600020549050919050565b6109fe611656565b610a0860006116dd565b565b610a12611656565b600a60009054906101000a900460ff1615610a62576040517f08c379a0000000000000000000000000000000000000000000000000000000008152600401610a5990612ad9565b60405180910390fd5b6000835111610aa6576040517f08c379a0000000000000000000000000000000000000000000000000000000008152600401610a9d90612b45565b60405180910390fd5b6000825111610aea576040517f08c379a0000000000000000000000000000000000000000000000000000000008152600401610ae190612bd7565b60405180910390fd5b6000815111610b2e576040517f08c379a0000000000000000000000000000000000000000000000000000000008152600401610b2590612c43565b60405180910390fd5b610b398460016117a3565b6001600a60006101000a81548160ff02191690831515021790555060405180606001604052808481526020018381526020018281525060076000820151816000019081610b8691906129bb565b506020820151816001019081610b9c91906129bb565b506040820151816002019081610bb291906129bb565b5090505050505050565b6000600660009054906101000a900473ffffffffffffffffffffffffffffffffffffffff16905090565b606060018054610bf59061273b565b80601f0160208091040260200160405190810160405280929190818152602001828054610c219061273b565b8015610c6e5780601f10610c4357610100808354040283529160200191610c6e565b820191906000526020600020905b815481529060010190602001808311610c5157829003601f168201915b5050505050905090565b610c8a610c83611422565b838361189c565b5050565b610c96611656565b600073ffffffffffffffffffffffffffffffffffffffff16610cb860016113e5565b73ffffffffffffffffffffffffffffffffffffffff1603610d0e576040517f08c379a0000000000000000000000000000000000000000000000000000000008152600401610d05906127b8565b60405180910390fd5b8060076001019081610d2091906129bb565b5050565b610d2c611656565b600073ffffffffffffffffffffffffffffffffffffffff16610d4e60016113e5565b73ffffffffffffffffffffffffffffffffffffffff1603610da4576040517f08c379a0000000000000000000000000000000000000000000000000000000008152600401610d9b906127b8565b60405180910390fd5b8060076002019081610db691906129bb565b5050565b610dc584848461075b565b610dd9610dd0611422565b85858585611a0b565b50505050565b606060018214610e24576040517f08c379a0000000000000000000000000000000000000000000000000000000008152600401610e1b90612caf565b60405180910390fd5b600073ffffffffffffffffffffffffffffffffffffffff16610e45836113e5565b73ffffffffffffffffffffffffffffffffffffffff1603610e9b576040517f08c379a0000000000000000000000000000000000000000000000000000000008152600401610e9290612d41565b60405180910390fd5b60076001016007600001604051602001610eb6929190612ed3565b6040516020818303038152906040529050919050565b610ed4611656565b600a60009054906101000a900460ff16610f23576040517f08c379a0000000000000000000000000000000000000000000000000000000008152600401610f1a906127b8565b60405180910390fd5b600083511115610f41578260076000019081610f3f91906129bb565b505b600082511115610f5f578160076001019081610f5d91906129bb565b505b600081511115610f7d578060076002019081610f7b91906129bb565b505b505050565b6000600560008473ffffffffffffffffffffffffffffffffffffffff1673ffffffffffffffffffffffffffffffffffffffff16815260200190815260200160002060008373ffffffffffffffffffffffffffffffffffffffff1673ffffffffffffffffffffffffffffffffffffffff16815260200190815260200160002060009054906101000a900460ff16905092915050565b6060600073ffffffffffffffffffffffffffffffffffffffff1661103a60016113e5565b73ffffffffffffffffffffffffffffffffffffffff1603611090576040517f08c379a0000000000000000000000000000000000000000000000000000000008152600401611087906127b8565b60405180910390fd5b600760020180546110a09061273b565b80601f01602080910402602001604051908101604052809291908181526020018280546110cc9061273b565b80156111195780601f106110ee57610100808354040283529160200191611119565b820191906000526020600020905b8154815290600101906020018083116110fc57829003601f168201915b5050505050905090565b61112b611656565b600073ffffffffffffffffffffffffffffffffffffffff168173ffffffffffffffffffffffffffffffffffffffff160361119d5760006040517f1e4fbdf7000000000000000000000000000000000000000000000000000000008152600401611194919061212b565b60405180910390fd5b6111a6816116dd565b50565b6060600073ffffffffffffffffffffffffffffffffffffffff166111cd60016113e5565b73ffffffffffffffffffffffffffffffffffffffff1603611223576040517f08c379a000000000000000000000000000000000000000000000000000000000815260040161121a906127b8565b60405180910390fd5b600760010180546112339061273b565b80601f016020809104026020016040519081016040528092919081815260200182805461125f9061273b565b80156112ac5780601f10611281576101008083540402835291602001916112ac565b820191906000526020600020905b81548152906001019060200180831161128f57829003601f168201915b5050505050905090565b60007f01ffc9a7000000000000000000000000000000000000000000000000000000007bffffffffffffffffffffffffffffffffffffffffffffffffffffffff1916827bffffffffffffffffffffffffffffffffffffffffffffffffffffffff1916149050919050565b60008061132c836113e5565b9050600073ffffffffffffffffffffffffffffffffffffffff168173ffffffffffffffffffffffffffffffffffffffff160361139f57826040517f7e27328900000000000000000000000000000000000000000000000000000000815260040161139691906123bf565b60405180910390fd5b80915050919050565b60006004600083815260200190815260200160002060009054906101000a900473ffffffffffffffffffffffffffffffffffffffff169050919050565b60006002600083815260200190815260200160002060009054906101000a900473ffffffffffffffffffffffffffffffffffffffff169050919050565b600033905090565b6114378383836001611bbc565b505050565b600080611448846113e5565b9050600073ffffffffffffffffffffffffffffffffffffffff168373ffffffffffffffffffffffffffffffffffffffff161461148a57611489818486611d81565b5b600073ffffffffffffffffffffffffffffffffffffffff168173ffffffffffffffffffffffffffffffffffffffff161461151b576114cc600085600080611bbc565b6001600360008373ffffffffffffffffffffffffffffffffffffffff1673ffffffffffffffffffffffffffffffffffffffff168152602001908152602001600020600082825403925050819055505b600073ffffffffffffffffffffffffffffffffffffffff168573ffffffffffffffffffffffffffffffffffffffff161461159e576001600360008773ffffffffffffffffffffffffffffffffffffffff1673ffffffffffffffffffffffffffffffffffffffff168152602001908152602001600020600082825401925050819055505b846002600086815260200190815260200160002060006101000a81548173ffffffffffffffffffffffffffffffffffffffff021916908373ffffffffffffffffffffffffffffffffffffffff160217905550838573ffffffffffffffffffffffffffffffffffffffff168273ffffffffffffffffffffffffffffffffffffffff167fddf252ad1be2c89b69c2b068fc378daa952ba7f163c4a11628f55a4df523b3ef60405160405180910390a4809150509392505050565b61165e611422565b73ffffffffffffffffffffffffffffffffffffffff1661167c610bbc565b73ffffffffffffffffffffffffffffffffffffffff16146116db5761169f611422565b6040517f118cdaa70000000000000000000000000000000000000000000000000000000081526004016116d2919061212b565b60405180910390fd5b565b6000600660009054906101000a900473ffffffffffffffffffffffffffffffffffffffff16905081600660006101000a81548173ffffffffffffffffffffffffffffffffffffffff021916908373ffffffffffffffffffffffffffffffffffffffff1602179055508173ffffffffffffffffffffffffffffffffffffffff168173ffffffffffffffffffffffffffffffffffffffff167f8be0079c531659141344cd1fd0a4f28419497f9722a3daafe3b4186f6b6457e060405160405180910390a35050565b600073ffffffffffffffffffffffffffffffffffffffff168273ffffffffffffffffffffffffffffffffffffffff16036118155760006040517f64a0ae9200000000000000000000000000000000000000000000000000000000815260040161180c919061212b565b60405180910390fd5b60006118238383600061143c565b9050600073ffffffffffffffffffffffffffffffffffffffff168173ffffffffffffffffffffffffffffffffffffffff16146118975760006040517f73c6ac6e00000000000000000000000000000000000000000000000000000000815260040161188e919061212b565b60405180910390fd5b505050565b600073ffffffffffffffffffffffffffffffffffffffff168273ffffffffffffffffffffffffffffffffffffffff160361190d57816040517f5b08ba18000000000000000000000000000000000000000000000000000000008152600401611904919061212b565b60405180910390fd5b80600560008573ffffffffffffffffffffffffffffffffffffffff1673ffffffffffffffffffffffffffffffffffffffff16815260200190815260200160002060008473ffffffffffffffffffffffffffffffffffffffff1673ffffffffffffffffffffffffffffffffffffffff16815260200190815260200160002060006101000a81548160ff0219169083151502179055508173ffffffffffffffffffffffffffffffffffffffff168373ffffffffffffffffffffffffffffffffffffffff167f17307eab39ab6107e8899845ad3d59bd9653f200f220920489ca2b5937696c31836040516119fe9190611fba565b60405180910390a3505050565b60008373ffffffffffffffffffffffffffffffffffffffff163b1115611bb5578273ffffffffffffffffffffffffffffffffffffffff1663150b7a02868685856040518563ffffffff1660e01b8152600401611a6a9493929190612f6d565b6020604051808303816000875af1925050508015611aa657506040513d601f19601f82011682018060405250810190611aa39190612fce565b60015b611b2a573d8060008114611ad6576040519150601f19603f3d011682016040523d82523d6000602084013e611adb565b606091505b506000815103611b2257836040517f64a0ae92000000000000000000000000000000000000000000000000000000008152600401611b19919061212b565b60405180910390fd5b805181602001fd5b63150b7a0260e01b7bffffffffffffffffffffffffffffffffffffffffffffffffffffffff1916817bffffffffffffffffffffffffffffffffffffffffffffffffffffffff191614611bb357836040517f64a0ae92000000000000000000000000000000000000000000000000000000008152600401611baa919061212b565b60405180910390fd5b505b5050505050565b8080611bf55750600073ffffffffffffffffffffffffffffffffffffffff168273ffffffffffffffffffffffffffffffffffffffff1614155b15611d29576000611c0584611320565b9050600073ffffffffffffffffffffffffffffffffffffffff168373ffffffffffffffffffffffffffffffffffffffff1614158015611c7057508273ffffffffffffffffffffffffffffffffffffffff168173ffffffffffffffffffffffffffffffffffffffff1614155b8015611c835750611c818184610f82565b155b15611cc557826040517fa9fbf51f000000000000000000000000000000000000000000000000000000008152600401611cbc919061212b565b60405180910390fd5b8115611d2757838573ffffffffffffffffffffffffffffffffffffffff168273ffffffffffffffffffffffffffffffffffffffff167f8c5be1e5ebec7d5bd14f71427d1e84f3dd0314c0f7b2291e5b200ac8c7c3b92560405160405180910390a45b505b836004600085815260200190815260200160002060006101000a81548173ffffffffffffffffffffffffffffffffffffffff021916908373ffffffffffffffffffffffffffffffffffffffff16021790555050505050565b611d8c838383611e45565b611e4057600073ffffffffffffffffffffffffffffffffffffffff168373ffffffffffffffffffffffffffffffffffffffff1603611e0157806040517f7e273289000000000000000000000000000000000000000000000000000000008152600401611df891906123bf565b60405180910390fd5b81816040517f177e802f000000000000000000000000000000000000000000000000000000008152600401611e37929190612ffb565b60405180910390fd5b505050565b60008073ffffffffffffffffffffffffffffffffffffffff168373ffffffffffffffffffffffffffffffffffffffff1614158015611efd57508273ffffffffffffffffffffffffffffffffffffffff168473ffffffffffffffffffffffffffffffffffffffff161480611ebe5750611ebd8484610f82565b5b80611efc57508273ffffffffffffffffffffffffffffffffffffffff16611ee4836113a8565b73ffffffffffffffffffffffffffffffffffffffff16145b5b90509392505050565b6000604051905090565b600080fd5b600080fd5b60007fffffffff0000000000000000000000000000000000000000000000000000000082169050919050565b611f4f81611f1a565b8114611f5a57600080fd5b50565b600081359050611f6c81611f46565b92915050565b600060208284031215611f8857611f87611f10565b5b6000611f9684828501611f5d565b91505092915050565b60008115159050919050565b611fb481611f9f565b82525050565b6000602082019050611fcf6000830184611fab565b92915050565b600081519050919050565b600082825260208201905092915050565b60005b8381101561200f578082015181840152602081019050611ff4565b60008484015250505050565b6000601f19601f8301169050919050565b600061203782611fd5565b6120418185611fe0565b9350612051818560208601611ff1565b61205a8161201b565b840191505092915050565b6000602082019050818103600083015261207f818461202c565b905092915050565b6000819050919050565b61209a81612087565b81146120a557600080fd5b50565b6000813590506120b781612091565b92915050565b6000602082840312156120d3576120d2611f10565b5b60006120e1848285016120a8565b91505092915050565b600073ffffffffffffffffffffffffffffffffffffffff82169050919050565b6000612115826120ea565b9050919050565b6121258161210a565b82525050565b6000602082019050612140600083018461211c565b92915050565b61214f8161210a565b811461215a57600080fd5b50565b60008135905061216c81612146565b92915050565b6000806040838503121561218957612188611f10565b5b60006121978582860161215d565b92505060206121a8858286016120a8565b9150509250929050565b6000806000606084860312156121cb576121ca611f10565b5b60006121d98682870161215d565b93505060206121ea8682870161215d565b92505060406121fb868287016120a8565b9150509250925092565b600080fd5b600080fd5b7f4e487b7100000000000000000000000000000000000000000000000000000000600052604160045260246000fd5b6122478261201b565b810181811067ffffffffffffffff821117156122665761226561220f565b5b80604052505050565b6000612279611f06565b9050612285828261223e565b919050565b600067ffffffffffffffff8211156122a5576122a461220f565b5b6122ae8261201b565b9050602081019050919050565b82818337600083830152505050565b60006122dd6122d88461228a565b61226f565b9050828152602081018484840111156122f9576122f861220a565b5b6123048482856122bb565b509392505050565b600082601f83011261232157612320612205565b5b81356123318482602086016122ca565b91505092915050565b6000602082840312156123505761234f611f10565b5b600082013567ffffffffffffffff81111561236e5761236d611f15565b5b61237a8482850161230c565b91505092915050565b60006020828403121561239957612398611f10565b5b60006123a78482850161215d565b91505092915050565b6123b981612087565b82525050565b60006020820190506123d460008301846123b0565b92915050565b600080600080608085870312156123f4576123f3611f10565b5b60006124028782880161215d565b945050602085013567ffffffffffffffff81111561242357612422611f15565b5b61242f8782880161230c565b935050604085013567ffffffffffffffff8111156124505761244f611f15565b5b61245c8782880161230c565b925050606085013567ffffffffffffffff81111561247d5761247c611f15565b5b6124898782880161230c565b91505092959194509250565b61249e81611f9f565b81146124a957600080fd5b50565b6000813590506124bb81612495565b92915050565b600080604083850312156124d8576124d7611f10565b5b60006124e68582860161215d565b92505060206124f7858286016124ac565b9150509250929050565b600067ffffffffffffffff82111561251c5761251b61220f565b5b6125258261201b565b9050602081019050919050565b600061254561254084612501565b61226f565b9050828152602081018484840111156125615761256061220a565b5b61256c8482856122bb565b509392505050565b600082601f83011261258957612588612205565b5b8135612599848260208601612532565b91505092915050565b600080600080608085870312156125bc576125bb611f10565b5b60006125ca8782880161215d565b94505060206125db8782880161215d565b93505060406125ec878288016120a8565b925050606085013567ffffffffffffffff81111561260d5761260c611f15565b5b61261987828801612574565b91505092959194509250565b60008060006060848603121561263e5761263d611f10565b5b600084013567ffffffffffffffff81111561265c5761265b611f15565b5b6126688682870161230c565b935050602084013567ffffffffffffffff81111561268957612688611f15565b5b6126958682870161230c565b925050604084013567ffffffffffffffff8111156126b6576126b5611f15565b5b6126c28682870161230c565b9150509250925092565b600080604083850312156126e3576126e2611f10565b5b60006126f18582860161215d565b92505060206127028582860161215d565b9150509250929050565b7f4e487b7100000000000000000000000000000000000000000000000000000000600052602260045260246000fd5b6000600282049050600182168061275357607f821691505b6020821081036127665761276561270c565b5b50919050565b7f546f6b656e20646f6573206e6f74206578697374000000000000000000000000600082015250565b60006127a2601483611fe0565b91506127ad8261276c565b602082019050919050565b600060208201905081810360008301526127d181612795565b9050919050565b60006060820190506127ed600083018661211c565b6127fa60208301856123b0565b612807604083018461211c565b949350505050565b60008190508160005260206000209050919050565b60006020601f8301049050919050565b600082821b905092915050565b6000600883026128717fffffffffffffffffffffffffffffffffffffffffffffffffffffffffffffffff82612834565b61287b8683612834565b95508019841693508086168417925050509392505050565b6000819050919050565b60006128b86128b36128ae84612087565b612893565b612087565b9050919050565b6000819050919050565b6128d28361289d565b6128e66128de826128bf565b848454612841565b825550505050565b600090565b6128fb6128ee565b6129068184846128c9565b505050565b5b8181101561292a5761291f6000826128f3565b60018101905061290c565b5050565b601f82111561296f576129408161280f565b61294984612824565b81016020851015612958578190505b61296c61296485612824565b83018261290b565b50505b505050565b600082821c905092915050565b600061299260001984600802612974565b1980831691505092915050565b60006129ab8383612981565b9150826002028217905092915050565b6129c482611fd5565b67ffffffffffffffff8111156129dd576129dc61220f565b5b6129e7825461273b565b6129f282828561292e565b600060209050601f831160018114612a255760008415612a13578287015190505b612a1d858261299f565b865550612a85565b601f198416612a338661280f565b60005b82811015612a5b57848901518255600182019150602085019450602081019050612a36565b86831015612a785784890151612a74601f891682612981565b8355505b6001600288020188555050505b505050505050565b7f4e465420616c7265616479206d696e7465640000000000000000000000000000600082015250565b6000612ac3601283611fe0565b9150612ace82612a8d565b602082019050919050565b60006020820190508181036000830152612af281612ab6565b9050919050565b7f49504653205552492063616e6e6f7420626520656d7074790000000000000000600082015250565b6000612b2f601883611fe0565b9150612b3a82612af9565b602082019050919050565b60006020820190508181036000830152612b5e81612b22565b9050919050565b7f4f6e2d636861696e206d657461646174612063616e6e6f7420626520656d707460008201527f7900000000000000000000000000000000000000000000000000000000000000602082015250565b6000612bc1602183611fe0565b9150612bcc82612b65565b604082019050919050565b60006020820190508181036000830152612bf081612bb4565b9050919050565b7f4f6e2d636861696e20696d6167652063616e6e6f7420626520656d7074790000600082015250565b6000612c2d601e83611fe0565b9150612c3882612bf7565b602082019050919050565b60006020820190508181036000830152612c5c81612c20565b9050919050565b7f4f6e6c79206f6e65204e465420657869737473207769746820494420312e0000600082015250565b6000612c99601e83611fe0565b9150612ca482612c63565b602082019050919050565b60006020820190508181036000830152612cc881612c8c565b9050919050565b7f4552433732314d657461646174613a2055524920717565727920666f72206e6f60008201527f6e6578697374656e7420746f6b656e0000000000000000000000000000000000602082015250565b6000612d2b602f83611fe0565b9150612d3682612ccf565b604082019050919050565b60006020820190508181036000830152612d5a81612d1e565b9050919050565b600081905092915050565b7f7b222c20226d65746164617461223a2200000000000000000000000000000000600082015250565b6000612da2601083612d61565b9150612dad82612d6c565b601082019050919050565b60008154612dc58161273b565b612dcf8186612d61565b94506001821660008114612dea5760018114612dff57612e32565b60ff1983168652811515820286019350612e32565b612e088561280f565b60005b83811015612e2a57815481890152600182019150602081019050612e0b565b838801955050505b50505092915050565b7f222c202265787465726e616c5f75726c223a2200000000000000000000000000600082015250565b6000612e71601383612d61565b9150612e7c82612e3b565b601382019050919050565b7f227d000000000000000000000000000000000000000000000000000000000000600082015250565b6000612ebd600283612d61565b9150612ec882612e87565b600282019050919050565b6000612ede82612d95565b9150612eea8285612db8565b9150612ef582612e64565b9150612f018284612db8565b9150612f0c82612eb0565b91508190509392505050565b600081519050919050565b600082825260208201905092915050565b6000612f3f82612f18565b612f498185612f23565b9350612f59818560208601611ff1565b612f628161201b565b840191505092915050565b6000608082019050612f82600083018761211c565b612f8f602083018661211c565b612f9c60408301856123b0565b8181036060830152612fae8184612f34565b905095945050505050565b600081519050612fc881611f46565b92915050565b600060208284031215612fe457612fe3611f10565b5b6000612ff284828501612fb9565b91505092915050565b6000604082019050613010600083018561211c565b61301d60208301846123b0565b939250505056fea264697066735822122044c2e8639c66560f2a668690eddedc7b7ae41e489eca11cf9dd5e7d4e112f13c64736f6c634300081c0033",
  "linkReferences": {},
  "deployedLinkReferences": {}
}